KRTIDX	HELP RMS Index	27-Sep-	MACRO V05.03b  00:01
Table of contents

    2-   3	Pass top of index back to caller
    3-   3	Fake RMS for help text file under RT-11
KRTIDX	HELP RMS Index	27-Sep-	MACRO V05.03b  00:01  Page 1


      1						.title	KRTIDX	HELP RMS Index	27-Sep-97  15:34:33
      2						.ident	"V03.63"
      3
      4					; /63/	27-Sep-97  Billy Youdelman  V03.63
      5					;
      6					;	moved this into a module of its own as KRTHLP was > 4096. words
      7
KRTIDX	HELP RMS Index	27-Sep-	MACRO V05.03b  00:01  Page 2


      1
      2	000000					.psect	$code	,ro,i,lcl,rel,con
      3						.sbttl	Pass top of index back to caller
      4
      5	000000	012700 	000024'		loahlp::mov	#hlphead,r0		; calling this also loads this overlay
      6	000004	000207 				return
      7
KRTIDX	HELP RMS Index	27-Sep-	MACRO V05.03b  00:01  Page 3
Pass top of index back to caller

      1
      2	000000					.psect	$pdata	,ro,d,lcl,rel,con
      3						.sbttl	Fake RMS for help text file under RT-11
      4
      5					;	Note here the "block" and "offset" point to the first line FOLLOWING
      6					;	the topic/subtopic line in the help text file (KRTHLP.HLP).  In other
      7					;	words, these data point to the first byte of the help text itself for
      8					;	the indicated topic or subtopic, which is directly AFTER the <cr><lf>
      9					;	tag on the topic/subtopic line.
     10
     11	000000	   126 	   060 	   063 	hident::.asciz	"V03.63 27-Sep-1997"
	000003	   056 	   066 	   063
	000006	   040 	   062 	   067
	000011	   055 	   123 	   145
	000014	   160 	   055 	   061
	000017	   071 	   071 	   067
	000022	   000
     12						.even
     13
     14						;	address	,block	,offset	,string
     15	000024	004002'	000000 	000031 	hlphead:.word	L1$	,0.	,25.	; 1 ?
     16	000032	004006'	000000 	000461 		.word	L2$	,0.	,305.	; 1 @
     17	000040	004012'	000001 	000420 		.word	L3$	,1.	,272.	; 1 ASCII-Set
     18	000046	004026'	000006 	000636 		.word	L4$	,6.	,414.	; 1 ASSIGN
     19	000054	004037'	000007 	000201 		.word	L5$	,7.	,129.	; 1 Binary-Files
     20	000062	004056'	000013 	000155 		.word	L6$	,11.	,109.	; 1 BUG
     21	000070	004064'	000013 	000301 		.word	L7$	,11.	,193.	; 1 BYE
     22	000076	004072'	000013 	000341 		.word	L8$	,11.	,225.	; 1 CD
     23	000104	004077'	000014 	000163 		.word	L9$	,12.	,115.	; 1 Character-Sets
     24	000112	004120'	000014 	000407 		.word	L10$	,12.	,263.	; 1 CLS
     25	000120	004126'	000014 	000606 		.word	L11$	,12.	,390.	; 1 CLX
     26	000126	004134'	000014 	000741 		.word	L12$	,12.	,481.	; 1 Common-Problems
     27	000134	004156'	000022 	000034 		.word	L13$	,18.	,28.	; 1 CONNECT
     28	000142	004170'	000027 	000302 		.word	L14$	,23.	,194.	; 1 Control-Chars
     29	000150	004210'	000032 	000207 		.word	L15$	,26.	,135.	; 1 COPY
     30	000156	004217'	000032 	000553 		.word	L16$	,26.	,363.	; 1 CWD
     31	000164	004225'	000032 	000611 		.word	L17$	,26.	,393.	; 1 DATE
     32	000172	004234'	000032 	000743 		.word	L18$	,26.	,483.	; 1 DAYTIME
     33	000200	004246'	000033 	000032 		.word	L19$	,27.	,26.	; 1 Debugging
     34	000206	004262'	000034 	000575 		.word	L20$	,28.	,381.	; 1 DELETE
     35	000214	004273'	000035 	000105 		.word	L21$	,29.	,69.	; 1 DIAL
     36	000222	004302'	000041 	000527 		.word	L22$	,33.	,343.	; 1 DIRECTORY
     37	000230	004316'	000042 	000745 		.word	L23$	,34.	,485.	; 1 DISCONNECT
     38	000236	004333'	000043 	000013 		.word	L24$	,35.	,11.	; 1 DISMOUNT
     39	000244	004346'	000043 	000363 		.word	L25$	,35.	,243.	; 1 EXAMINE
     40	000252	004360'	000044 	000550 		.word	L26$	,36.	,360.	; 1 EXIT
     41	000260	004367'	000045 	000006 		.word	L27$	,37.	,6.	; 1 File-Format-Info
     42	000266	004412'	000061 	000644 		.word	L28$	,49.	,420.	; 1 FINISH
     43	000274	004423'	000062 	000067 		.word	L29$	,50.	,55.	; 1 GET
     44	000302	004431'	000067 	000633 		.word	L30$	,55.	,411.	; 1 HANGUP
     45	000310	004442'	000070 	000572 		.word	L31$	,56.	,378.	; 1 HELP
     46	000316	004451'	000072 	000060 		.word	L32$	,58.	,48.	; 1 HOME
     47	000324	004460'	000072 	000327 		.word	L33$	,58.	,215.	; 1 HPRINT
     48	000332	004471'	000073 	000573 		.word	L34$	,59.	,379.	; 1 Installation-Notes
     49	000340	004516'	000106 	000642 		.word	L35$	,70.	,418.	; 2 Files-Required
     50	000346	004537'	000115 	000104 		.word	L36$	,77.	,68.	; 2 KM
     51	000354	004544'	000122 	000621 		.word	L37$	,82.	,401.	; 2 KRT.INI-Examples
KRTIDX	HELP RMS Index	27-Sep-	MACRO V05.03b  00:01  Page 3-1
Fake RMS for help text file under RT-11

     52	000362	004567'	000126 	000145 		.word	L38$	,86.	,101.	; 2 Modems
     53	000370	004600'	000134 	000402 		.word	L39$	,92.	,258.	; 3 Anchor
     54	000376	004611'	000140 	000174 		.word	L40$	,96.	,124.	; 3 Hayes-MNP
     55	000404	004625'	000140 	000737 		.word	L41$	,96.	,479.	; 3 Telebit-T2500
     56	000412	004645'	000150 	000307 		.word	L42$	,104.	,199.	; 3 Telebit-T3000
     57	000420	004665'	000153 	000571 		.word	L43$	,107.	,377.	; 3 US-Robotics
     58	000426	004703'	000157 	000472 		.word	L44$	,111.	,314.	; 2 RT-11
     59	000434	004713'	000171 	000016 		.word	L45$	,121.	,14.	; 2 TSX-Plus
     60	000442	004726'	000205 	000072 		.word	L46$	,133.	,58.	; 1 Introduction
     61	000450	004745'	000214 	000461 		.word	L47$	,140.	,305.	; 1 Local-vs-Remote
     62	000456	004767'	000217 	000257 		.word	L48$	,143.	,175.	; 1 LOGFILE
     63	000464	005001'	000221 	000200 		.word	L49$	,145.	,128.	; 1 LOGOUT
     64	000472	005012'	000221 	000527 		.word	L50$	,145.	,343.	; 1 Long-Packets
     65	000500	005031'	000224 	000377 		.word	L51$	,148.	,255.	; 1 MILNET-TAC
     66	000506	005046'	000224 	000602 		.word	L52$	,148.	,386.	; 2 Binary-Files
     67	000514	005065'	000225 	000774 		.word	L53$	,149.	,508.	; 2 Flow-Control
     68	000522	005104'	000230 	000135 		.word	L54$	,152.	,93.	; 2 Intercept-Character
     69	000530	005132'	000231 	000004 		.word	L55$	,153.	,4.	; 2 Time-Outs
     70	000536	005146'	000231 	000351 		.word	L56$	,153.	,233.	; 1 Modems
     71	000544	005157'	000231 	000774 		.word	L57$	,153.	,508.	; 1 MOUNT
     72	000552	005167'	000233 	000503 		.word	L58$	,155.	,323.	; 1 Parity
     73	000560	005200'	000236 	000623 		.word	L59$	,158.	,403.	; 1 PRINT
     74	000566	005210'	000237 	000502 		.word	L60$	,159.	,322.	; 1 PWD
     75	000574	005216'	000237 	000720 		.word	L61$	,159.	,464.	; 1 QUIT
     76	000602	005225'	000237 	000763 		.word	L62$	,159.	,499.	; 1 RECEIVE
     77	000610	005237'	000243 	000755 		.word	L63$	,163.	,493.	; 1 REDIAL
     78	000616	005250'	000246 	000164 		.word	L64$	,166.	,116.	; 1 Release-Notes
     79	000624	005270'	000247 	000407 		.word	L65$	,167.	,263.	; 2 KRTCDF.MAC
     80	000632	005305'	000247 	000644 		.word	L66$	,167.	,420.	; 2 KRTCMD.MAC
     81	000640	005322'	000250 	000116 		.word	L67$	,168.	,78.	; 2 KRTCM1.MAC
     82	000646	005337'	000250 	000432 		.word	L68$	,168.	,282.	; 2 KRTCOM.MAC
     83	000654	005354'	000250 	000627 		.word	L69$	,168.	,407.	; 2 KRTCON.MAC
     84	000662	005371'	000251 	000033 		.word	L70$	,169.	,27.	; 2 KRTCVT.MAC
     85	000670	005406'	000251 	000300 		.word	L71$	,169.	,192.	; 2 KRTDAT.MAC
     86	000676	005423'	000251 	000425 		.word	L72$	,169.	,277.	; 2 KRTDIA.MAC
     87	000704	005440'	000251 	000706 		.word	L73$	,169.	,454.	; 2 KRTDIR.MAC
     88	000712	005455'	000252 	000071 		.word	L74$	,170.	,57.	; 2 KRTEDI.MAC
     89	000720	005472'	000252 	000317 		.word	L75$	,170.	,207.	; 2 KRTERM.MAC
     90	000726	005507'	000252 	000427 		.word	L76$	,170.	,279.	; 2 KRTERR.MAC
     91	000734	005524'	000252 	000645 		.word	L77$	,170.	,421.	; 2 KRTHLP.MAC
     92	000742	005541'	000253 	000154 		.word	L78$	,171.	,108.	; 2 KRTIDX.MAC
     93	000750	005556'	000253 	000305 		.word	L79$	,171.	,197.	; 2 KRTKM.MAC
     94	000756	005572'	000255 	000050 		.word	L80$	,173.	,40.	; 2 KRTMAC.MAC
     95	000764	005607'	000255 	000334 		.word	L81$	,173.	,220.	; 2 KRTMDM.MAC
     96	000772	005624'	000255 	000767 		.word	L82$	,173.	,503.	; 2 KRTOSI.MAC
     97	001000	005641'	000256 	000105 		.word	L83$	,174.	,69.	; 2 KRTPAK.MAC
     98	001006	005656'	000256 	000624 		.word	L84$	,174.	,404.	; 2 KRTREC.MAC
     99	001014	005673'	000257 	000163 		.word	L85$	,175.	,115.	; 2 KRTRMS.MAC
    100	001022	005710'	000257 	000561 		.word	L86$	,175.	,369.	; 2 KRTSEN.MAC
    101	001030	005725'	000260 	000400 		.word	L87$	,176.	,256.	; 2 KRTSER.MAC
    102	001036	005742'	000261 	000143 		.word	L88$	,177.	,99.	; 2 KRTSHO.MAC
    103	001044	005757'	000261 	000576 		.word	L89$	,177.	,382.	; 2 KRTSTD.MAC
    104	001052	005774'	000261 	000677 		.word	L90$	,177.	,447.	; 2 KRTST0.MAC
    105	001060	006011'	000262 	000115 		.word	L91$	,178.	,77.	; 2 KRTST1.MAC
    106	001066	006026'	000262 	000637 		.word	L92$	,178.	,415.	; 2 KRTSUB.MAC
    107	001074	006043'	000262 	000757 		.word	L93$	,178.	,495.	; 2 KRTXMO.MAC
    108	001102	006060'	000263 	000073 		.word	L94$	,179.	,59.	; 1 REMOTE
KRTIDX	HELP RMS Index	27-Sep-	MACRO V05.03b  00:01  Page 3-2
Fake RMS for help text file under RT-11

    109	001110	006071'	000263 	000746 		.word	L95$	,179.	,486.	; 2 CD
    110	001116	006076'	000264 	000264 		.word	L96$	,180.	,180.	; 2 COPY
    111	001124	006105'	000265 	000321 		.word	L97$	,181.	,209.	; 2 CWD
    112	001132	006113'	000265 	000370 		.word	L98$	,181.	,248.	; 2 DELETE
    113	001140	006124'	000265 	000631 		.word	L99$	,181.	,409.	; 2 DIRECTORY
    114	001146	006140'	000266 	000251 		.word	L100$	,182.	,169.	; 2 HELP
    115	001154	006147'	000266 	000335 		.word	L101$	,182.	,221.	; 2 HOST
    116	001162	006156'	000266 	000751 		.word	L102$	,182.	,489.	; 2 LOGIN
    117	001170	006166'	000267 	000536 		.word	L103$	,183.	,350.	; 2 RENAME
    118	001176	006177'	000270 	000026 		.word	L104$	,184.	,22.	; 2 SPACE
    119	001204	006207'	000270 	000242 		.word	L105$	,184.	,162.	; 2 TYPE
    120	001212	006216'	000270 	000502 		.word	L106$	,184.	,322.	; 2 WHO
    121	001220	006224'	000270 	000734 		.word	L107$	,184.	,476.	; 1 RENAME
    122	001226	006235'	000271 	000064 		.word	L108$	,185.	,52.	; 1 SEND
    123	001234	006244'	000276 	000734 		.word	L109$	,190.	,476.	; 1 SERVER
    124	001242	006255'	000303 	000407 		.word	L110$	,195.	,263.	; 1 SET
    125	001250	006263'	000304 	000011 		.word	L111$	,196.	,9.	; 2 ATTRIBUTES
    126	001256	006300'	000306 	000665 		.word	L112$	,198.	,437.	; 3 ALL
    127	001264	006306'	000307 	000076 		.word	L113$	,199.	,62.	; 3 DATE
    128	001272	006315'	000307 	000501 		.word	L114$	,199.	,321.	; 3 EXACT-LENGTH
    129	001300	006334'	000307 	000751 		.word	L115$	,199.	,489.	; 3 LENGTH
    130	001306	006345'	000310 	000054 		.word	L116$	,200.	,44.	; 3 OFF
    131	001314	006353'	000310 	000307 		.word	L117$	,200.	,199.	; 3 ON
    132	001322	006360'	000310 	000556 		.word	L118$	,200.	,366.	; 3 PROTECTION
    133	001330	006375'	000311 	000053 		.word	L119$	,201.	,43.	; 3 SYSTEM-ID
    134	001336	006411'	000311 	000203 		.word	L120$	,201.	,131.	; 3 SYSTEM-INFO
    135	001344	006427'	000311 	000506 		.word	L121$	,201.	,326.	; 3 TYPE
    136	001352	006436'	000311 	000621 		.word	L122$	,201.	,401.	; 2 BAUD
    137	001360	006445'	000311 	000675 		.word	L123$	,201.	,445.	; 2 BINARY-TYPE
    138	001366	006463'	000312 	000630 		.word	L124$	,202.	,408.	; 2 BLOCK-CHECK-TYPE
    139	001374	006506'	000314 	000256 		.word	L125$	,204.	,174.	; 2 CL:
    140	001402	006514'	000324 	000466 		.word	L126$	,212.	,310.	; 2 CONSOLE
    141	001410	006526'	000325 	000036 		.word	L127$	,213.	,30.	; 3 7-BIT
    142	001416	006536'	000325 	000405 		.word	L128$	,213.	,261.	; 3 8-BIT
    143	001424	006546'	000325 	000577 		.word	L129$	,213.	,383.	; 3 BREAK
    144	001432	006556'	000325 	000727 		.word	L130$	,213.	,471.	; 3 MILNET
    145	001440	006567'	000326 	000401 		.word	L131$	,214.	,257.	; 3 PRIORITY
    146	001446	006602'	000327 	000707 		.word	L132$	,215.	,455.	; 2 CONTROL-CHARACTER
    147	001454	006626'	000344 	000407 		.word	L133$	,228.	,263.	; 3 PREFIXED
    148	001462	006641'	000345 	000066 		.word	L134$	,229.	,54.	; 3 UNPREFIXED
    149	001470	006656'	000345 	000731 		.word	L135$	,229.	,473.	; 2 DEBUG
    150	001476	006666'	000346 	000636 		.word	L136$	,230.	,414.	; 3 ALL
    151	001504	006674'	000346 	000711 		.word	L137$	,230.	,457.	; 3 CONSOLE
    152	001512	006706'	000347 	000410 		.word	L138$	,231.	,264.	; 3 CONNECT
    153	001520	006720'	000347 	000465 		.word	L139$	,231.	,309.	; 3 NONE
    154	001526	006727'	000350 	000000 		.word	L140$	,232.	,0.	; 3 NORPACK
    155	001534	006741'	000350 	000377 		.word	L141$	,232.	,255.	; 3 NOTERMINAL
    156	001542	006756'	000350 	000671 		.word	L142$	,232.	,441.	; 3 NOTT:
    157	001550	006766'	000350 	000750 		.word	L143$	,232.	,488.	; 3 OFF
    158	001556	006774'	000351 	000336 		.word	L144$	,233.	,222.	; 3 ON
    159	001564	007001'	000351 	000506 		.word	L145$	,233.	,326.	; 3 PACKET
    160	001572	007012'	000354 	000422 		.word	L146$	,236.	,274.	; 3 RAW
    161	001600	007020'	000354 	000671 		.word	L147$	,236.	,441.	; 3 RPACK
    162	001606	007030'	000356 	000215 		.word	L148$	,238.	,141.	; 3 TERMINAL
    163	001614	007043'	000357 	000047 		.word	L149$	,239.	,39.	; 3 TT:
    164	001622	007051'	000357 	000130 		.word	L150$	,239.	,88.	; 2 DEFAULT
    165	001630	007063'	000357 	000343 		.word	L151$	,239.	,227.	; 2 DELAY
KRTIDX	HELP RMS Index	27-Sep-	MACRO V05.03b  00:01  Page 3-3
Fake RMS for help text file under RT-11

    166	001636	007073'	000357 	000727 		.word	L152$	,239.	,471.	; 2 DIAL
    167	001644	007102'	000375 	000635 		.word	L153$	,253.	,413.	; 3 ABORT
    168	001652	007112'	000376 	000330 		.word	L154$	,254.	,216.	; 3 ANSWER
    169	001660	007123'	000377 	000072 		.word	L155$	,255.	,58.	; 3 BINARY-RESPONSE
    170	001666	007145'	000377 	000513 		.word	L156$	,255.	,331.	; 3 BLIND
    171	001674	007155'	000400 	000121 		.word	L157$	,256.	,81.	; 3 COMMENT
    172	001702	007167'	000400 	000527 		.word	L158$	,256.	,343.	; 3 CON300
    173	001710	007200'	000401 	000143 		.word	L159$	,257.	,99.	; 3 CON1200
    174	001716	007212'	000401 	000535 		.word	L160$	,257.	,349.	; 3 CON2400
    175	001724	007224'	000402 	000127 		.word	L161$	,258.	,87.	; 3 CON4800
    176	001732	007236'	000402 	000521 		.word	L162$	,258.	,337.	; 3 CON9600
    177	001740	007250'	000403 	000210 		.word	L163$	,259.	,136.	; 3 CON19200
    178	001746	007263'	000403 	000663 		.word	L164$	,259.	,435.	; 3 CON38400
    179	001754	007276'	000404 	000261 		.word	L165$	,260.	,177.	; 3 CONFIRM
    180	001762	007310'	000404 	000674 		.word	L166$	,260.	,444.	; 3 CONFIRM-ACKNOWLEDGE
    181	001770	007336'	000405 	000444 		.word	L167$	,261.	,292.	; 3 DIAL-ACKNOWLEDGE
    182	001776	007361'	000406 	000056 		.word	L168$	,262.	,46.	; 3 DIAL-PAUSE
    183	002004	007376'	000407 	000146 		.word	L169$	,263.	,102.	; 3 DIAL-RATE
    184	002012	007412'	000407 	000660 		.word	L170$	,263.	,432.	; 3 ECHO
    185	002020	007421'	000410 	000322 		.word	L171$	,264.	,210.	; 3 FAILURE
    186	002026	007433'	000410 	000765 		.word	L172$	,264.	,501.	; 3 FORMAT
    187	002034	007444'	000412 	000355 		.word	L173$	,266.	,237.	; 3 Format-effectors
    188	002042	007467'	000414 	000430 		.word	L174$	,268.	,280.	; 3 IDLE
    189	002050	007476'	000415 	000104 		.word	L175$	,269.	,68.	; 3 Important-Notes!
    190	002056	007521'	000425 	000257 		.word	L176$	,277.	,175.	; 3 INITIATE
    191	002064	007534'	000425 	000742 		.word	L177$	,277.	,482.	; 3 INITIATE-PROMPT
    192	002072	007556'	000426 	000335 		.word	L178$	,278.	,221.	; 3 INIT-ONCE
    193	002100	007572'	000427 	000340 		.word	L179$	,279.	,224.	; 3 NOANSWER
    194	002106	007605'	000430 	000073 		.word	L180$	,280.	,59.	; 3 NOBINARY-RESPONSE
    195	002114	007631'	000430 	000422 		.word	L181$	,280.	,274.	; 3 NOECHO
    196	002122	007642'	000431 	000073 		.word	L182$	,281.	,59.	; 3 NOINIT-ONCE
    197	002130	007660'	000431 	000521 		.word	L183$	,281.	,337.	; 3 PULSE
    198	002136	007670'	000432 	000247 		.word	L184$	,282.	,167.	; 3 RINGING
    199	002144	007702'	000433 	000134 		.word	L185$	,283.	,92.	; 3 SETTLE-TIME
    200	002152	007720'	000434 	000324 		.word	L186$	,284.	,212.	; 3 SUCCESS
    201	002160	007732'	000435 	000362 		.word	L187$	,285.	,242.	; 3 TIME-OUT
    202	002166	007745'	000436 	000430 		.word	L188$	,286.	,280.	; 3 TONE
    203	002174	007754'	000437 	000165 		.word	L189$	,287.	,117.	; 3 WAKE-ACKNOWLEDGE
    204	002202	007777'	000437 	000642 		.word	L190$	,287.	,418.	; 3 WAKE-RATE
    205	002210	010013'	000440 	000363 		.word	L191$	,288.	,243.	; 3 WAKE-STRING
    206	002216	010031'	000440 	000730 		.word	L192$	,288.	,472.	; 2 DTR
    207	002224	010037'	000441 	000034 		.word	L193$	,289.	,28.	; 2 DUPLEX
    208	002232	010050'	000441 	000527 		.word	L194$	,289.	,343.	; 2 END-OF-LINE
    209	002240	010066'	000442 	000135 		.word	L195$	,290.	,93.	; 2 EOF
    210	002246	010074'	000442 	000611 		.word	L196$	,290.	,393.	; 2 ESCAPE
    211	002254	010105'	000443 	000366 		.word	L197$	,291.	,246.	; 2 FILE-TYPE
    212	002262	010121'	000446 	000303 		.word	L198$	,294.	,195.	; 3 ASCII
    213	002270	010131'	000446 	000767 		.word	L199$	,294.	,503.	; 3 AUTO
    214	002276	010140'	000447 	000447 		.word	L200$	,295.	,295.	; 3 BINARY
    215	002304	010151'	000450 	000013 		.word	L201$	,296.	,11.	; 3 CREATE-SIZE
    216	002312	010167'	000452 	000314 		.word	L202$	,298.	,204.	; 3 CSI-PARSING
    217	002320	010205'	000453 	000306 		.word	L203$	,299.	,198.	; 3 DEC-MULTINATIONAL
    218	002326	010231'	000454 	000004 		.word	L204$	,300.	,4.	; 3 FIXED
    219	002334	010241'	000454 	000060 		.word	L205$	,300.	,48.	; 3 IMAGE
    220	002342	010251'	000454 	000151 		.word	L206$	,300.	,105.	; 3 NAMING
    221	002350	010262'	000454 	000505 		.word	L207$	,300.	,325.	; 4 CONVERTED
    222	002356	010276'	000455 	000044 		.word	L208$	,301.	,36.	; 4 FULL
KRTIDX	HELP RMS Index	27-Sep-	MACRO V05.03b  00:01  Page 3-4
Fake RMS for help text file under RT-11

    223	002364	010305'	000455 	000411 		.word	L209$	,301.	,265.	; 4 LOWER-CASE
    224	002372	010322'	000455 	000762 		.word	L210$	,301.	,498.	; 4 NOLOWER-CASE
    225	002400	010341'	000456 	000370 		.word	L211$	,302.	,248.	; 3 NOPROTECT
    226	002406	010355'	000457 	000010 		.word	L212$	,303.	,8.	; 3 NOREPLACE
    227	002414	010371'	000457 	000077 		.word	L213$	,303.	,63.	; 3 NOVOLUME-VERIFY
    228	002422	010413'	000457 	000623 		.word	L214$	,303.	,403.	; 3 PROTECT
    229	002430	010425'	000461 	000100 		.word	L215$	,305.	,64.	; 3 REPLACE
    230	002436	010437'	000461 	000156 		.word	L216$	,305.	,110.	; 3 TEXT
    231	002444	010446'	000461 	000230 		.word	L217$	,305.	,152.	; 3 TYPE
    232	002452	010455'	000461 	000503 		.word	L218$	,305.	,323.	; 3 VOLUME-VERIFY
    233	002460	010475'	000462 	000137 		.word	L219$	,306.	,95.	; 3 WILDCARDS
    234	002466	010511'	000463 	000437 		.word	L220$	,307.	,287.	; 2 FLOW-CONTROL
    235	002474	010530'	000464 	000556 		.word	L221$	,308.	,366.	; 2 HANDSHAKE
    236	002502	010544'	000465 	000067 		.word	L222$	,309.	,55.	; 3 CR
    237	002510	010551'	000465 	000173 		.word	L223$	,309.	,123.	; 3 NONE
    238	002516	010560'	000465 	000251 		.word	L224$	,309.	,169.	; 2 HOME
    239	002524	010567'	000465 	000410 		.word	L225$	,309.	,264.	; 2 INCOMPLETE-FILE-DISPOSITION
    240	002532	010625'	000466 	000564 		.word	L226$	,310.	,372.	; 2 LD:
    241	002540	010633'	000466 	000776 		.word	L227$	,310.	,510.	; 2 LINE
    242	002546	010642'	000471 	000131 		.word	L228$	,313.	,89.	; 2 LOCAL-ECHO
    243	002554	010657'	000471 	000432 		.word	L229$	,313.	,282.	; 2 LOGFILE
    244	002562	010671'	000471 	000521 		.word	L230$	,313.	,337.	; 2 LONG-PACKETS
    245	002570	010710'	000473 	000166 		.word	L231$	,315.	,118.	; 2 MODEM-TYPE
    246	002576	010725'	000474 	000704 		.word	L232$	,316.	,452.	; 2 NOATTRIBUTES
    247	002604	010744'	000475 	000133 		.word	L233$	,317.	,91.	; 2 NODEBUG
    248	002612	010756'	000475 	000500 		.word	L234$	,317.	,320.	; 2 NOLONG-PACKETS
    249	002620	010777'	000475 	000610 		.word	L235$	,317.	,392.	; 2 NOREPEAT-QUOTING
    250	002626	011022'	000475 	000735 		.word	L236$	,317.	,477.	; 2 NOUPDATE
    251	002634	011035'	000476 	000232 		.word	L237$	,318.	,154.	; 2 PARITY
    252	002642	011046'	000477 	000772 		.word	L238$	,319.	,506.	; 2 PAUSE
    253	002650	011056'	000500 	000205 		.word	L239$	,320.	,133.	; 2 PHONE
    254	002656	011066'	000500 	000416 		.word	L240$	,320.	,270.	; 3 ANSWER
    255	002664	011077'	000501 	000651 		.word	L241$	,321.	,425.	; 3 BLIND
    256	002672	011107'	000502 	000406 		.word	L242$	,322.	,262.	; 3 NOANSWER
    257	002700	011122'	000503 	000147 		.word	L243$	,323.	,103.	; 3 NUMBER
    258	002706	011133'	000504 	000506 		.word	L244$	,324.	,326.	; 3 PULSE
    259	002714	011143'	000505 	000431 		.word	L245$	,325.	,281.	; 3 TONE
    260	002722	011152'	000506 	000354 		.word	L246$	,326.	,236.	; 3 XMODE
    261	002730	011162'	000507 	000400 		.word	L247$	,327.	,256.	; 2 PROMPT
    262	002736	011173'	000510 	000270 		.word	L248$	,328.	,184.	; 2 RANDOM
    263	002744	011204'	000511 	000007 		.word	L249$	,329.	,7.	; 2 RECEIVE
    264	002752	011216'	000511 	000174 		.word	L250$	,329.	,124.	; 3 PACKET-LENGTH
    265	002760	011236'	000512 	000205 		.word	L251$	,330.	,133.	; 3 START-OF-PACKET
    266	002766	011260'	000513 	000371 		.word	L252$	,331.	,249.	; 3 TIME-OUT
    267	002774	011273'	000514 	000143 		.word	L253$	,332.	,99.	; 2 REPEAT-QUOTING
    268	003002	011314'	000514 	000465 		.word	L254$	,332.	,309.	; 2 RETRY
    269	003010	011324'	000515 	000671 		.word	L255$	,333.	,441.	; 2 SEED
    270	003016	011333'	000516 	000121 		.word	L256$	,334.	,81.	; 2 SEND
    271	003024	011342'	000516 	000271 		.word	L257$	,334.	,185.	; 3 NOXON
    272	003032	011352'	000516 	000404 		.word	L258$	,334.	,260.	; 3 PACKET-LENGTH
    273	003040	011372'	000517 	000476 		.word	L259$	,335.	,318.	; 3 PADCHARACTER
    274	003046	011411'	000517 	000773 		.word	L260$	,335.	,507.	; 3 PADDING
    275	003054	011423'	000520 	000312 		.word	L261$	,336.	,202.	; 3 START-OF-PACKET
    276	003062	011445'	000521 	000476 		.word	L262$	,337.	,318.	; 3 TIME-OUT
    277	003070	011460'	000522 	000643 		.word	L263$	,338.	,419.	; 3 XON
    278	003076	011466'	000522 	000777 		.word	L264$	,338.	,511.	; 2 SERVER
    279	003104	011477'	000523 	000334 		.word	L265$	,339.	,220.	; 2 SL
KRTIDX	HELP RMS Index	27-Sep-	MACRO V05.03b  00:01  Page 3-5
Fake RMS for help text file under RT-11

    280	003112	011504'	000523 	000726 		.word	L266$	,339.	,470.	; 2 SPEED
    281	003120	011514'	000524 	000753 		.word	L267$	,340.	,491.	; 2 START-OF-PACKET
    282	003126	011536'	000525 	000400 		.word	L268$	,341.	,256.	; 2 TERMINAL
    283	003134	011551'	000526 	000773 		.word	L269$	,342.	,507.	; 2 TT:
    284	003142	011557'	000527 	000045 		.word	L270$	,343.	,37.	; 2 UPDATE
    285	003150	011570'	000527 	000624 		.word	L271$	,343.	,404.	; 2 VLSWCH
    286	003156	011601'	000530 	000300 		.word	L272$	,344.	,192.	; 1 SHOW
    287	003164	011610'	000530 	000647 		.word	L273$	,344.	,423.	; 2 ALL
    288	003172	011616'	000530 	000764 		.word	L274$	,344.	,500.	; 2 ASSIGNS
    289	003200	011630'	000531 	000100 		.word	L275$	,345.	,64.	; 2 ATTRIBUTES
    290	003206	011645'	000531 	000467 		.word	L276$	,345.	,311.	; 2 BAUD
    291	003214	011654'	000531 	000620 		.word	L277$	,345.	,400.	; 2 BINARY-TYPE
    292	003222	011672'	000531 	000746 		.word	L278$	,345.	,486.	; 2 BLOCK-CHECK-TYPE
    293	003230	011715'	000532 	000031 		.word	L279$	,346.	,25.	; 2 CL:
    294	003236	011723'	000532 	000247 		.word	L280$	,346.	,167.	; 2 CONSOLE
    295	003244	011735'	000532 	000520 		.word	L281$	,346.	,336.	; 2 CONTROL-PREFIXING
    296	003252	011761'	000532 	000771 		.word	L282$	,346.	,505.	; 2 DATE
    297	003260	011770'	000533 	000123 		.word	L283$	,347.	,83.	; 2 DAYTIME
    298	003266	012002'	000533 	000206 		.word	L284$	,347.	,134.	; 2 DEBUG
    299	003274	012012'	000533 	000343 		.word	L285$	,347.	,227.	; 2 DEFAULT
    300	003302	012024'	000533 	000424 		.word	L286$	,347.	,276.	; 2 DELAY
    301	003310	012034'	000533 	000575 		.word	L287$	,347.	,381.	; 2 DIAL
    302	003316	012043'	000534 	000565 		.word	L288$	,348.	,373.	; 2 DTR
    303	003324	012051'	000534 	000706 		.word	L289$	,348.	,454.	; 2 DUPLEX
    304	003332	012062'	000535 	000027 		.word	L290$	,349.	,23.	; 2 END-OF-LINE
    305	003340	012100'	000535 	000137 		.word	L291$	,349.	,95.	; 2 EOF
    306	003346	012106'	000535 	000424 		.word	L292$	,349.	,276.	; 2 ESCAPE
    307	003354	012117'	000535 	000564 		.word	L293$	,349.	,372.	; 2 FILE-TYPE
    308	003362	012133'	000535 	000727 		.word	L294$	,349.	,471.	; 2 FLOW-CONTROL
    309	003370	012152'	000536 	000066 		.word	L295$	,350.	,54.	; 2 HANDSHAKE
    310	003376	012166'	000536 	000160 		.word	L296$	,350.	,112.	; 2 HOME
    311	003404	012175'	000536 	000316 		.word	L297$	,350.	,206.	; 2 INCOMPLETE-FILE-DISPOSITION
    312	003412	012233'	000537 	000014 		.word	L298$	,351.	,12.	; 2 LD:
    313	003420	012241'	000537 	000122 		.word	L299$	,351.	,82.	; 2 LINE
    314	003426	012250'	000537 	000525 		.word	L300$	,351.	,341.	; 2 LOCAL-ECHO
    315	003434	012265'	000537 	000646 		.word	L301$	,351.	,422.	; 2 LOGFILE
    316	003442	012277'	000537 	000770 		.word	L302$	,351.	,504.	; 2 LONG-PACKETS
    317	003450	012316'	000540 	000112 		.word	L303$	,352.	,74.	; 2 MEMORY
    318	003456	012327'	000540 	000232 		.word	L304$	,352.	,154.	; 2 MODEM-TYPE
    319	003464	012344'	000540 	000455 		.word	L305$	,352.	,301.	; 2 PACKETS
    320	003472	012356'	000540 	000557 		.word	L306$	,352.	,367.	; 2 PARAMETERS
    321	003500	012373'	000540 	000665 		.word	L307$	,352.	,437.	; 2 PARITY
    322	003506	012404'	000540 	000755 		.word	L308$	,352.	,493.	; 2 PAUSE
    323	003514	012414'	000541 	000060 		.word	L309$	,353.	,48.	; 2 PHONE
    324	003522	012424'	000541 	000421 		.word	L310$	,353.	,273.	; 2 RANDOM
    325	003530	012435'	000541 	000554 		.word	L311$	,353.	,364.	; 2 RECEIVE
    326	003536	012447'	000541 	000676 		.word	L312$	,353.	,446.	; 2 REPEAT-QUOTING
    327	003544	012470'	000542 	000010 		.word	L313$	,354.	,8.	; 2 RETRY
    328	003552	012500'	000542 	000124 		.word	L314$	,354.	,84.	; 2 SEED
    329	003560	012507'	000542 	000232 		.word	L315$	,354.	,154.	; 2 SEND
    330	003566	012516'	000542 	000341 		.word	L316$	,354.	,225.	; 2 SERVER
    331	003574	012527'	000542 	000423 		.word	L317$	,354.	,275.	; 2 SL
    332	003602	012534'	000542 	000541 		.word	L318$	,354.	,353.	; 2 SPEED
    333	003610	012544'	000542 	000672 		.word	L319$	,354.	,442.	; 2 START-OF-PACKET
    334	003616	012566'	000543 	000003 		.word	L320$	,355.	,3.	; 2 SUBMOUNTS
    335	003624	012602'	000543 	000137 		.word	L321$	,355.	,95.	; 2 TERMINAL
    336	003632	012615'	000543 	000363 		.word	L322$	,355.	,243.	; 2 TIME
KRTIDX	HELP RMS Index	27-Sep-	MACRO V05.03b  00:01  Page 3-6
Fake RMS for help text file under RT-11

    337	003640	012624'	000543 	000742 		.word	L323$	,355.	,482.	; 2 TIME-OUTS
    338	003646	012640'	000544 	000040 		.word	L324$	,356.	,32.	; 2 TT:
    339	003654	012646'	000544 	000113 		.word	L325$	,356.	,75.	; 2 UPDATE
    340	003662	012657'	000544 	000242 		.word	L326$	,356.	,162.	; 2 VERSION
    341	003670	012671'	000544 	000345 		.word	L327$	,356.	,229.	; 2 VLSWCH
    342	003676	012702'	000544 	000553 		.word	L328$	,356.	,363.	; 1 SL-Editor
    343	003704	012716'	000546 	000225 		.word	L329$	,358.	,149.	; 2 Function-Keys
    344	003712	012736'	000547 	000741 		.word	L330$	,359.	,481.	; 2 KED-Mode-Functions
    345	003720	012763'	000551 	000637 		.word	L331$	,361.	,415.	; 1 SPACE
    346	003726	012773'	000552 	000020 		.word	L332$	,362.	,16.	; 1 STATUS
    347	003734	013004'	000553 	000105 		.word	L333$	,363.	,69.	; 1 TAKE
    348	003742	013013'	000554 	000104 		.word	L334$	,364.	,68.	; 1 TIME
    349	003750	013022'	000554 	000462 		.word	L335$	,364.	,306.	; 1 TRANSMIT
    350	003756	013035'	000555 	000502 		.word	L336$	,365.	,322.	; 1 TYPE
    351	003764	013044'	000556 	000531 		.word	L337$	,366.	,345.	; 1 Upgrades
    352	003772	013057'	000560 	000430 		.word	L338$	,368.	,280.	; 1 XMODEM
    353	004000	000000 				.word	0			; null terminator
    354
    355	004002	   061 	   040 	   077 	L1$:	.asciz	"1 ?"
	004005	   000
    356	004006	   061 	   040 	   100 	L2$:	.asciz	"1 @"
	004011	   000
    357	004012	   061 	   040 	   101 	L3$:	.asciz	"1 ASCII-Set"
	004015	   123 	   103 	   111
	004020	   111 	   055 	   123
	004023	   145 	   164 	   000
    358	004026	   061 	   040 	   101 	L4$:	.asciz	"1 ASSIGN"
	004031	   123 	   123 	   111
	004034	   107 	   116 	   000
    359	004037	   061 	   040 	   102 	L5$:	.asciz	"1 Binary-Files"
	004042	   151 	   156 	   141
	004045	   162 	   171 	   055
	004050	   106 	   151 	   154
	004053	   145 	   163 	   000
    360	004056	   061 	   040 	   102 	L6$:	.asciz	"1 BUG"
	004061	   125 	   107 	   000
    361	004064	   061 	   040 	   102 	L7$:	.asciz	"1 BYE"
	004067	   131 	   105 	   000
    362	004072	   061 	   040 	   103 	L8$:	.asciz	"1 CD"
	004075	   104 	   000
    363	004077	   061 	   040 	   103 	L9$:	.asciz	"1 Character-Sets"
	004102	   150 	   141 	   162
	004105	   141 	   143 	   164
	004110	   145 	   162 	   055
	004113	   123 	   145 	   164
	004116	   163 	   000
    364	004120	   061 	   040 	   103 	L10$:	.asciz	"1 CLS"
	004123	   114 	   123 	   000
    365	004126	   061 	   040 	   103 	L11$:	.asciz	"1 CLX"
	004131	   114 	   130 	   000
    366	004134	   061 	   040 	   103 	L12$:	.asciz	"1 Common-Problems"
	004137	   157 	   155 	   155
	004142	   157 	   156 	   055
	004145	   120 	   162 	   157
	004150	   142 	   154 	   145
	004153	   155 	   163 	   000
    367	004156	   061 	   040 	   103 	L13$:	.asciz	"1 CONNECT"
KRTIDX	HELP RMS Index	27-Sep-	MACRO V05.03b  00:01  Page 3-7
Fake RMS for help text file under RT-11

	004161	   117 	   116 	   116
	004164	   105 	   103 	   124
	004167	   000
    368	004170	   061 	   040 	   103 	L14$:	.asciz	"1 Control-Chars"
	004173	   157 	   156 	   164
	004176	   162 	   157 	   154
	004201	   055 	   103 	   150
	004204	   141 	   162 	   163
	004207	   000
    369	004210	   061 	   040 	   103 	L15$:	.asciz	"1 COPY"
	004213	   117 	   120 	   131
	004216	   000
    370	004217	   061 	   040 	   103 	L16$:	.asciz	"1 CWD"
	004222	   127 	   104 	   000
    371	004225	   061 	   040 	   104 	L17$:	.asciz	"1 DATE"
	004230	   101 	   124 	   105
	004233	   000
    372	004234	   061 	   040 	   104 	L18$:	.asciz	"1 DAYTIME"
	004237	   101 	   131 	   124
	004242	   111 	   115 	   105
	004245	   000
    373	004246	   061 	   040 	   104 	L19$:	.asciz	"1 Debugging"
	004251	   145 	   142 	   165
	004254	   147 	   147 	   151
	004257	   156 	   147 	   000
    374	004262	   061 	   040 	   104 	L20$:	.asciz	"1 DELETE"
	004265	   105 	   114 	   105
	004270	   124 	   105 	   000
    375	004273	   061 	   040 	   104 	L21$:	.asciz	"1 DIAL"
	004276	   111 	   101 	   114
	004301	   000
    376	004302	   061 	   040 	   104 	L22$:	.asciz	"1 DIRECTORY"
	004305	   111 	   122 	   105
	004310	   103 	   124 	   117
	004313	   122 	   131 	   000
    377	004316	   061 	   040 	   104 	L23$:	.asciz	"1 DISCONNECT"
	004321	   111 	   123 	   103
	004324	   117 	   116 	   116
	004327	   105 	   103 	   124
	004332	   000
    378	004333	   061 	   040 	   104 	L24$:	.asciz	"1 DISMOUNT"
	004336	   111 	   123 	   115
	004341	   117 	   125 	   116
	004344	   124 	   000
    379	004346	   061 	   040 	   105 	L25$:	.asciz	"1 EXAMINE"
	004351	   130 	   101 	   115
	004354	   111 	   116 	   105
	004357	   000
    380	004360	   061 	   040 	   105 	L26$:	.asciz	"1 EXIT"
	004363	   130 	   111 	   124
	004366	   000
    381	004367	   061 	   040 	   106 	L27$:	.asciz	"1 File-Format-Info"
	004372	   151 	   154 	   145
	004375	   055 	   106 	   157
	004400	   162 	   155 	   141
	004403	   164 	   055 	   111
	004406	   156 	   146 	   157
KRTIDX	HELP RMS Index	27-Sep-	MACRO V05.03b  00:01  Page 3-8
Fake RMS for help text file under RT-11

	004411	   000
    382	004412	   061 	   040 	   106 	L28$:	.asciz	"1 FINISH"
	004415	   111 	   116 	   111
	004420	   123 	   110 	   000
    383	004423	   061 	   040 	   107 	L29$:	.asciz	"1 GET"
	004426	   105 	   124 	   000
    384	004431	   061 	   040 	   110 	L30$:	.asciz	"1 HANGUP"
	004434	   101 	   116 	   107
	004437	   125 	   120 	   000
    385	004442	   061 	   040 	   110 	L31$:	.asciz	"1 HELP"
	004445	   105 	   114 	   120
	004450	   000
    386	004451	   061 	   040 	   110 	L32$:	.asciz	"1 HOME"
	004454	   117 	   115 	   105
	004457	   000
    387	004460	   061 	   040 	   110 	L33$:	.asciz	"1 HPRINT"
	004463	   120 	   122 	   111
	004466	   116 	   124 	   000
    388	004471	   061 	   040 	   111 	L34$:	.asciz	"1 Installation-Notes"
	004474	   156 	   163 	   164
	004477	   141 	   154 	   154
	004502	   141 	   164 	   151
	004505	   157 	   156 	   055
	004510	   116 	   157 	   164
	004513	   145 	   163 	   000
    389	004516	   062 	   040 	   106 	L35$:	.asciz	"2 Files-Required"
	004521	   151 	   154 	   145
	004524	   163 	   055 	   122
	004527	   145 	   161 	   165
	004532	   151 	   162 	   145
	004535	   144 	   000
    390	004537	   062 	   040 	   113 	L36$:	.asciz	"2 KM"
	004542	   115 	   000
    391	004544	   062 	   040 	   113 	L37$:	.asciz	"2 KRT.INI-Examples"
	004547	   122 	   124 	   056
	004552	   111 	   116 	   111
	004555	   055 	   105 	   170
	004560	   141 	   155 	   160
	004563	   154 	   145 	   163
	004566	   000
    392	004567	   062 	   040 	   115 	L38$:	.asciz	"2 Modems"
	004572	   157 	   144 	   145
	004575	   155 	   163 	   000
    393	004600	   063 	   040 	   101 	L39$:	.asciz	"3 Anchor"
	004603	   156 	   143 	   150
	004606	   157 	   162 	   000
    394	004611	   063 	   040 	   110 	L40$:	.asciz	"3 Hayes-MNP"
	004614	   141 	   171 	   145
	004617	   163 	   055 	   115
	004622	   116 	   120 	   000
    395	004625	   063 	   040 	   124 	L41$:	.asciz	"3 Telebit-T2500"
	004630	   145 	   154 	   145
	004633	   142 	   151 	   164
	004636	   055 	   124 	   062
	004641	   065 	   060 	   060
	004644	   000
    396	004645	   063 	   040 	   124 	L42$:	.asciz	"3 Telebit-T3000"
KRTIDX	HELP RMS Index	27-Sep-	MACRO V05.03b  00:01  Page 3-9
Fake RMS for help text file under RT-11

	004650	   145 	   154 	   145
	004653	   142 	   151 	   164
	004656	   055 	   124 	   063
	004661	   060 	   060 	   060
	004664	   000
    397	004665	   063 	   040 	   125 	L43$:	.asciz	"3 US-Robotics"
	004670	   123 	   055 	   122
	004673	   157 	   142 	   157
	004676	   164 	   151 	   143
	004701	   163 	   000
    398	004703	   062 	   040 	   122 	L44$:	.asciz	"2 RT-11"
	004706	   124 	   055 	   061
	004711	   061 	   000
    399	004713	   062 	   040 	   124 	L45$:	.asciz	"2 TSX-Plus"
	004716	   123 	   130 	   055
	004721	   120 	   154 	   165
	004724	   163 	   000
    400	004726	   061 	   040 	   111 	L46$:	.asciz	"1 Introduction"
	004731	   156 	   164 	   162
	004734	   157 	   144 	   165
	004737	   143 	   164 	   151
	004742	   157 	   156 	   000
    401	004745	   061 	   040 	   114 	L47$:	.asciz	"1 Local-vs-Remote"
	004750	   157 	   143 	   141
	004753	   154 	   055 	   166
	004756	   163 	   055 	   122
	004761	   145 	   155 	   157
	004764	   164 	   145 	   000
    402	004767	   061 	   040 	   114 	L48$:	.asciz	"1 LOGFILE"
	004772	   117 	   107 	   106
	004775	   111 	   114 	   105
	005000	   000
    403	005001	   061 	   040 	   114 	L49$:	.asciz	"1 LOGOUT"
	005004	   117 	   107 	   117
	005007	   125 	   124 	   000
    404	005012	   061 	   040 	   114 	L50$:	.asciz	"1 Long-Packets"
	005015	   157 	   156 	   147
	005020	   055 	   120 	   141
	005023	   143 	   153 	   145
	005026	   164 	   163 	   000
    405	005031	   061 	   040 	   115 	L51$:	.asciz	"1 MILNET-TAC"
	005034	   111 	   114 	   116
	005037	   105 	   124 	   055
	005042	   124 	   101 	   103
	005045	   000
    406	005046	   062 	   040 	   102 	L52$:	.asciz	"2 Binary-Files"
	005051	   151 	   156 	   141
	005054	   162 	   171 	   055
	005057	   106 	   151 	   154
	005062	   145 	   163 	   000
    407	005065	   062 	   040 	   106 	L53$:	.asciz	"2 Flow-Control"
	005070	   154 	   157 	   167
	005073	   055 	   103 	   157
	005076	   156 	   164 	   162
	005101	   157 	   154 	   000
    408	005104	   062 	   040 	   111 	L54$:	.asciz	"2 Intercept-Character"
	005107	   156 	   164 	   145
KRTIDX	HELP RMS Index	27-Sep-	MACRO V05.03b  00:01  Page 3-10
Fake RMS for help text file under RT-11

	005112	   162 	   143 	   145
	005115	   160 	   164 	   055
	005120	   103 	   150 	   141
	005123	   162 	   141 	   143
	005126	   164 	   145 	   162
	005131	   000
    409	005132	   062 	   040 	   124 	L55$:	.asciz	"2 Time-Outs"
	005135	   151 	   155 	   145
	005140	   055 	   117 	   165
	005143	   164 	   163 	   000
    410	005146	   061 	   040 	   115 	L56$:	.asciz	"1 Modems"
	005151	   157 	   144 	   145
	005154	   155 	   163 	   000
    411	005157	   061 	   040 	   115 	L57$:	.asciz	"1 MOUNT"
	005162	   117 	   125 	   116
	005165	   124 	   000
    412	005167	   061 	   040 	   120 	L58$:	.asciz	"1 Parity"
	005172	   141 	   162 	   151
	005175	   164 	   171 	   000
    413	005200	   061 	   040 	   120 	L59$:	.asciz	"1 PRINT"
	005203	   122 	   111 	   116
	005206	   124 	   000
    414	005210	   061 	   040 	   120 	L60$:	.asciz	"1 PWD"
	005213	   127 	   104 	   000
    415	005216	   061 	   040 	   121 	L61$:	.asciz	"1 QUIT"
	005221	   125 	   111 	   124
	005224	   000
    416	005225	   061 	   040 	   122 	L62$:	.asciz	"1 RECEIVE"
	005230	   105 	   103 	   105
	005233	   111 	   126 	   105
	005236	   000
    417	005237	   061 	   040 	   122 	L63$:	.asciz	"1 REDIAL"
	005242	   105 	   104 	   111
	005245	   101 	   114 	   000
    418	005250	   061 	   040 	   122 	L64$:	.asciz	"1 Release-Notes"
	005253	   145 	   154 	   145
	005256	   141 	   163 	   145
	005261	   055 	   116 	   157
	005264	   164 	   145 	   163
	005267	   000
    419	005270	   062 	   040 	   113 	L65$:	.asciz	"2 KRTCDF.MAC"
	005273	   122 	   124 	   103
	005276	   104 	   106 	   056
	005301	   115 	   101 	   103
	005304	   000
    420	005305	   062 	   040 	   113 	L66$:	.asciz	"2 KRTCMD.MAC"
	005310	   122 	   124 	   103
	005313	   115 	   104 	   056
	005316	   115 	   101 	   103
	005321	   000
    421	005322	   062 	   040 	   113 	L67$:	.asciz	"2 KRTCM1.MAC"
	005325	   122 	   124 	   103
	005330	   115 	   061 	   056
	005333	   115 	   101 	   103
	005336	   000
    422	005337	   062 	   040 	   113 	L68$:	.asciz	"2 KRTCOM.MAC"
	005342	   122 	   124 	   103
KRTIDX	HELP RMS Index	27-Sep-	MACRO V05.03b  00:01  Page 3-11
Fake RMS for help text file under RT-11

	005345	   117 	   115 	   056
	005350	   115 	   101 	   103
	005353	   000
    423	005354	   062 	   040 	   113 	L69$:	.asciz	"2 KRTCON.MAC"
	005357	   122 	   124 	   103
	005362	   117 	   116 	   056
	005365	   115 	   101 	   103
	005370	   000
    424	005371	   062 	   040 	   113 	L70$:	.asciz	"2 KRTCVT.MAC"
	005374	   122 	   124 	   103
	005377	   126 	   124 	   056
	005402	   115 	   101 	   103
	005405	   000
    425	005406	   062 	   040 	   113 	L71$:	.asciz	"2 KRTDAT.MAC"
	005411	   122 	   124 	   104
	005414	   101 	   124 	   056
	005417	   115 	   101 	   103
	005422	   000
    426	005423	   062 	   040 	   113 	L72$:	.asciz	"2 KRTDIA.MAC"
	005426	   122 	   124 	   104
	005431	   111 	   101 	   056
	005434	   115 	   101 	   103
	005437	   000
    427	005440	   062 	   040 	   113 	L73$:	.asciz	"2 KRTDIR.MAC"
	005443	   122 	   124 	   104
	005446	   111 	   122 	   056
	005451	   115 	   101 	   103
	005454	   000
    428	005455	   062 	   040 	   113 	L74$:	.asciz	"2 KRTEDI.MAC"
	005460	   122 	   124 	   105
	005463	   104 	   111 	   056
	005466	   115 	   101 	   103
	005471	   000
    429	005472	   062 	   040 	   113 	L75$:	.asciz	"2 KRTERM.MAC"
	005475	   122 	   124 	   105
	005500	   122 	   115 	   056
	005503	   115 	   101 	   103
	005506	   000
    430	005507	   062 	   040 	   113 	L76$:	.asciz	"2 KRTERR.MAC"
	005512	   122 	   124 	   105
	005515	   122 	   122 	   056
	005520	   115 	   101 	   103
	005523	   000
    431	005524	   062 	   040 	   113 	L77$:	.asciz	"2 KRTHLP.MAC"
	005527	   122 	   124 	   110
	005532	   114 	   120 	   056
	005535	   115 	   101 	   103
	005540	   000
    432	005541	   062 	   040 	   113 	L78$:	.asciz	"2 KRTIDX.MAC"
	005544	   122 	   124 	   111
	005547	   104 	   130 	   056
	005552	   115 	   101 	   103
	005555	   000
    433	005556	   062 	   040 	   113 	L79$:	.asciz	"2 KRTKM.MAC"
	005561	   122 	   124 	   113
	005564	   115 	   056 	   115
	005567	   101 	   103 	   000
KRTIDX	HELP RMS Index	27-Sep-	MACRO V05.03b  00:01  Page 3-12
Fake RMS for help text file under RT-11

    434	005572	   062 	   040 	   113 	L80$:	.asciz	"2 KRTMAC.MAC"
	005575	   122 	   124 	   115
	005600	   101 	   103 	   056
	005603	   115 	   101 	   103
	005606	   000
    435	005607	   062 	   040 	   113 	L81$:	.asciz	"2 KRTMDM.MAC"
	005612	   122 	   124 	   115
	005615	   104 	   115 	   056
	005620	   115 	   101 	   103
	005623	   000
    436	005624	   062 	   040 	   113 	L82$:	.asciz	"2 KRTOSI.MAC"
	005627	   122 	   124 	   117
	005632	   123 	   111 	   056
	005635	   115 	   101 	   103
	005640	   000
    437	005641	   062 	   040 	   113 	L83$:	.asciz	"2 KRTPAK.MAC"
	005644	   122 	   124 	   120
	005647	   101 	   113 	   056
	005652	   115 	   101 	   103
	005655	   000
    438	005656	   062 	   040 	   113 	L84$:	.asciz	"2 KRTREC.MAC"
	005661	   122 	   124 	   122
	005664	   105 	   103 	   056
	005667	   115 	   101 	   103
	005672	   000
    439	005673	   062 	   040 	   113 	L85$:	.asciz	"2 KRTRMS.MAC"
	005676	   122 	   124 	   122
	005701	   115 	   123 	   056
	005704	   115 	   101 	   103
	005707	   000
    440	005710	   062 	   040 	   113 	L86$:	.asciz	"2 KRTSEN.MAC"
	005713	   122 	   124 	   123
	005716	   105 	   116 	   056
	005721	   115 	   101 	   103
	005724	   000
    441	005725	   062 	   040 	   113 	L87$:	.asciz	"2 KRTSER.MAC"
	005730	   122 	   124 	   123
	005733	   105 	   122 	   056
	005736	   115 	   101 	   103
	005741	   000
    442	005742	   062 	   040 	   113 	L88$:	.asciz	"2 KRTSHO.MAC"
	005745	   122 	   124 	   123
	005750	   110 	   117 	   056
	005753	   115 	   101 	   103
	005756	   000
    443	005757	   062 	   040 	   113 	L89$:	.asciz	"2 KRTSTD.MAC"
	005762	   122 	   124 	   123
	005765	   124 	   104 	   056
	005770	   115 	   101 	   103
	005773	   000
    444	005774	   062 	   040 	   113 	L90$:	.asciz	"2 KRTST0.MAC"
	005777	   122 	   124 	   123
	006002	   124 	   060 	   056
	006005	   115 	   101 	   103
	006010	   000
    445	006011	   062 	   040 	   113 	L91$:	.asciz	"2 KRTST1.MAC"
	006014	   122 	   124 	   123
KRTIDX	HELP RMS Index	27-Sep-	MACRO V05.03b  00:01  Page 3-13
Fake RMS for help text file under RT-11

	006017	   124 	   061 	   056
	006022	   115 	   101 	   103
	006025	   000
    446	006026	   062 	   040 	   113 	L92$:	.asciz	"2 KRTSUB.MAC"
	006031	   122 	   124 	   123
	006034	   125 	   102 	   056
	006037	   115 	   101 	   103
	006042	   000
    447	006043	   062 	   040 	   113 	L93$:	.asciz	"2 KRTXMO.MAC"
	006046	   122 	   124 	   130
	006051	   115 	   117 	   056
	006054	   115 	   101 	   103
	006057	   000
    448	006060	   061 	   040 	   122 	L94$:	.asciz	"1 REMOTE"
	006063	   105 	   115 	   117
	006066	   124 	   105 	   000
    449	006071	   062 	   040 	   103 	L95$:	.asciz	"2 CD"
	006074	   104 	   000
    450	006076	   062 	   040 	   103 	L96$:	.asciz	"2 COPY"
	006101	   117 	   120 	   131
	006104	   000
    451	006105	   062 	   040 	   103 	L97$:	.asciz	"2 CWD"
	006110	   127 	   104 	   000
    452	006113	   062 	   040 	   104 	L98$:	.asciz	"2 DELETE"
	006116	   105 	   114 	   105
	006121	   124 	   105 	   000
    453	006124	   062 	   040 	   104 	L99$:	.asciz	"2 DIRECTORY"
	006127	   111 	   122 	   105
	006132	   103 	   124 	   117
	006135	   122 	   131 	   000
    454	006140	   062 	   040 	   110 	L100$:	.asciz	"2 HELP"
	006143	   105 	   114 	   120
	006146	   000
    455	006147	   062 	   040 	   110 	L101$:	.asciz	"2 HOST"
	006152	   117 	   123 	   124
	006155	   000
    456	006156	   062 	   040 	   114 	L102$:	.asciz	"2 LOGIN"
	006161	   117 	   107 	   111
	006164	   116 	   000
    457	006166	   062 	   040 	   122 	L103$:	.asciz	"2 RENAME"
	006171	   105 	   116 	   101
	006174	   115 	   105 	   000
    458	006177	   062 	   040 	   123 	L104$:	.asciz	"2 SPACE"
	006202	   120 	   101 	   103
	006205	   105 	   000
    459	006207	   062 	   040 	   124 	L105$:	.asciz	"2 TYPE"
	006212	   131 	   120 	   105
	006215	   000
    460	006216	   062 	   040 	   127 	L106$:	.asciz	"2 WHO"
	006221	   110 	   117 	   000
    461	006224	   061 	   040 	   122 	L107$:	.asciz	"1 RENAME"
	006227	   105 	   116 	   101
	006232	   115 	   105 	   000
    462	006235	   061 	   040 	   123 	L108$:	.asciz	"1 SEND"
	006240	   105 	   116 	   104
	006243	   000
    463	006244	   061 	   040 	   123 	L109$:	.asciz	"1 SERVER"
KRTIDX	HELP RMS Index	27-Sep-	MACRO V05.03b  00:01  Page 3-14
Fake RMS for help text file under RT-11

	006247	   105 	   122 	   126
	006252	   105 	   122 	   000
    464	006255	   061 	   040 	   123 	L110$:	.asciz	"1 SET"
	006260	   105 	   124 	   000
    465	006263	   062 	   040 	   101 	L111$:	.asciz	"2 ATTRIBUTES"
	006266	   124 	   124 	   122
	006271	   111 	   102 	   125
	006274	   124 	   105 	   123
	006277	   000
    466	006300	   063 	   040 	   101 	L112$:	.asciz	"3 ALL"
	006303	   114 	   114 	   000
    467	006306	   063 	   040 	   104 	L113$:	.asciz	"3 DATE"
	006311	   101 	   124 	   105
	006314	   000
    468	006315	   063 	   040 	   105 	L114$:	.asciz	"3 EXACT-LENGTH"
	006320	   130 	   101 	   103
	006323	   124 	   055 	   114
	006326	   105 	   116 	   107
	006331	   124 	   110 	   000
    469	006334	   063 	   040 	   114 	L115$:	.asciz	"3 LENGTH"
	006337	   105 	   116 	   107
	006342	   124 	   110 	   000
    470	006345	   063 	   040 	   117 	L116$:	.asciz	"3 OFF"
	006350	   106 	   106 	   000
    471	006353	   063 	   040 	   117 	L117$:	.asciz	"3 ON"
	006356	   116 	   000
    472	006360	   063 	   040 	   120 	L118$:	.asciz	"3 PROTECTION"
	006363	   122 	   117 	   124
	006366	   105 	   103 	   124
	006371	   111 	   117 	   116
	006374	   000
    473	006375	   063 	   040 	   123 	L119$:	.asciz	"3 SYSTEM-ID"
	006400	   131 	   123 	   124
	006403	   105 	   115 	   055
	006406	   111 	   104 	   000
    474	006411	   063 	   040 	   123 	L120$:	.asciz	"3 SYSTEM-INFO"
	006414	   131 	   123 	   124
	006417	   105 	   115 	   055
	006422	   111 	   116 	   106
	006425	   117 	   000
    475	006427	   063 	   040 	   124 	L121$:	.asciz	"3 TYPE"
	006432	   131 	   120 	   105
	006435	   000
    476	006436	   062 	   040 	   102 	L122$:	.asciz	"2 BAUD"
	006441	   101 	   125 	   104
	006444	   000
    477	006445	   062 	   040 	   102 	L123$:	.asciz	"2 BINARY-TYPE"
	006450	   111 	   116 	   101
	006453	   122 	   131 	   055
	006456	   124 	   131 	   120
	006461	   105 	   000
    478	006463	   062 	   040 	   102 	L124$:	.asciz	"2 BLOCK-CHECK-TYPE"
	006466	   114 	   117 	   103
	006471	   113 	   055 	   103
	006474	   110 	   105 	   103
	006477	   113 	   055 	   124
	006502	   131 	   120 	   105
KRTIDX	HELP RMS Index	27-Sep-	MACRO V05.03b  00:01  Page 3-15
Fake RMS for help text file under RT-11

	006505	   000
    479	006506	   062 	   040 	   103 	L125$:	.asciz	"2 CL:"
	006511	   114 	   072 	   000
    480	006514	   062 	   040 	   103 	L126$:	.asciz	"2 CONSOLE"
	006517	   117 	   116 	   123
	006522	   117 	   114 	   105
	006525	   000
    481	006526	   063 	   040 	   067 	L127$:	.asciz	"3 7-BIT"
	006531	   055 	   102 	   111
	006534	   124 	   000
    482	006536	   063 	   040 	   070 	L128$:	.asciz	"3 8-BIT"
	006541	   055 	   102 	   111
	006544	   124 	   000
    483	006546	   063 	   040 	   102 	L129$:	.asciz	"3 BREAK"
	006551	   122 	   105 	   101
	006554	   113 	   000
    484	006556	   063 	   040 	   115 	L130$:	.asciz	"3 MILNET"
	006561	   111 	   114 	   116
	006564	   105 	   124 	   000
    485	006567	   063 	   040 	   120 	L131$:	.asciz	"3 PRIORITY"
	006572	   122 	   111 	   117
	006575	   122 	   111 	   124
	006600	   131 	   000
    486	006602	   062 	   040 	   103 	L132$:	.asciz	"2 CONTROL-CHARACTER"
	006605	   117 	   116 	   124
	006610	   122 	   117 	   114
	006613	   055 	   103 	   110
	006616	   101 	   122 	   101
	006621	   103 	   124 	   105
	006624	   122 	   000
    487	006626	   063 	   040 	   120 	L133$:	.asciz	"3 PREFIXED"
	006631	   122 	   105 	   106
	006634	   111 	   130 	   105
	006637	   104 	   000
    488	006641	   063 	   040 	   125 	L134$:	.asciz	"3 UNPREFIXED"
	006644	   116 	   120 	   122
	006647	   105 	   106 	   111
	006652	   130 	   105 	   104
	006655	   000
    489	006656	   062 	   040 	   104 	L135$:	.asciz	"2 DEBUG"
	006661	   105 	   102 	   125
	006664	   107 	   000
    490	006666	   063 	   040 	   101 	L136$:	.asciz	"3 ALL"
	006671	   114 	   114 	   000
    491	006674	   063 	   040 	   103 	L137$:	.asciz	"3 CONSOLE"
	006677	   117 	   116 	   123
	006702	   117 	   114 	   105
	006705	   000
    492	006706	   063 	   040 	   103 	L138$:	.asciz	"3 CONNECT"
	006711	   117 	   116 	   116
	006714	   105 	   103 	   124
	006717	   000
    493	006720	   063 	   040 	   116 	L139$:	.asciz	"3 NONE"
	006723	   117 	   116 	   105
	006726	   000
    494	006727	   063 	   040 	   116 	L140$:	.asciz	"3 NORPACK"
	006732	   117 	   122 	   120
KRTIDX	HELP RMS Index	27-Sep-	MACRO V05.03b  00:01  Page 3-16
Fake RMS for help text file under RT-11

	006735	   101 	   103 	   113
	006740	   000
    495	006741	   063 	   040 	   116 	L141$:	.asciz	"3 NOTERMINAL"
	006744	   117 	   124 	   105
	006747	   122 	   115 	   111
	006752	   116 	   101 	   114
	006755	   000
    496	006756	   063 	   040 	   116 	L142$:	.asciz	"3 NOTT:"
	006761	   117 	   124 	   124
	006764	   072 	   000
    497	006766	   063 	   040 	   117 	L143$:	.asciz	"3 OFF"
	006771	   106 	   106 	   000
    498	006774	   063 	   040 	   117 	L144$:	.asciz	"3 ON"
	006777	   116 	   000
    499	007001	   063 	   040 	   120 	L145$:	.asciz	"3 PACKET"
	007004	   101 	   103 	   113
	007007	   105 	   124 	   000
    500	007012	   063 	   040 	   122 	L146$:	.asciz	"3 RAW"
	007015	   101 	   127 	   000
    501	007020	   063 	   040 	   122 	L147$:	.asciz	"3 RPACK"
	007023	   120 	   101 	   103
	007026	   113 	   000
    502	007030	   063 	   040 	   124 	L148$:	.asciz	"3 TERMINAL"
	007033	   105 	   122 	   115
	007036	   111 	   116 	   101
	007041	   114 	   000
    503	007043	   063 	   040 	   124 	L149$:	.asciz	"3 TT:"
	007046	   124 	   072 	   000
    504	007051	   062 	   040 	   104 	L150$:	.asciz	"2 DEFAULT"
	007054	   105 	   106 	   101
	007057	   125 	   114 	   124
	007062	   000
    505	007063	   062 	   040 	   104 	L151$:	.asciz	"2 DELAY"
	007066	   105 	   114 	   101
	007071	   131 	   000
    506	007073	   062 	   040 	   104 	L152$:	.asciz	"2 DIAL"
	007076	   111 	   101 	   114
	007101	   000
    507	007102	   063 	   040 	   101 	L153$:	.asciz	"3 ABORT"
	007105	   102 	   117 	   122
	007110	   124 	   000
    508	007112	   063 	   040 	   101 	L154$:	.asciz	"3 ANSWER"
	007115	   116 	   123 	   127
	007120	   105 	   122 	   000
    509	007123	   063 	   040 	   102 	L155$:	.asciz	"3 BINARY-RESPONSE"
	007126	   111 	   116 	   101
	007131	   122 	   131 	   055
	007134	   122 	   105 	   123
	007137	   120 	   117 	   116
	007142	   123 	   105 	   000
    510	007145	   063 	   040 	   102 	L156$:	.asciz	"3 BLIND"
	007150	   114 	   111 	   116
	007153	   104 	   000
    511	007155	   063 	   040 	   103 	L157$:	.asciz	"3 COMMENT"
	007160	   117 	   115 	   115
	007163	   105 	   116 	   124
	007166	   000
KRTIDX	HELP RMS Index	27-Sep-	MACRO V05.03b  00:01  Page 3-17
Fake RMS for help text file under RT-11

    512	007167	   063 	   040 	   103 	L158$:	.asciz	"3 CON300"
	007172	   117 	   116 	   063
	007175	   060 	   060 	   000
    513	007200	   063 	   040 	   103 	L159$:	.asciz	"3 CON1200"
	007203	   117 	   116 	   061
	007206	   062 	   060 	   060
	007211	   000
    514	007212	   063 	   040 	   103 	L160$:	.asciz	"3 CON2400"
	007215	   117 	   116 	   062
	007220	   064 	   060 	   060
	007223	   000
    515	007224	   063 	   040 	   103 	L161$:	.asciz	"3 CON4800"
	007227	   117 	   116 	   064
	007232	   070 	   060 	   060
	007235	   000
    516	007236	   063 	   040 	   103 	L162$:	.asciz	"3 CON9600"
	007241	   117 	   116 	   071
	007244	   066 	   060 	   060
	007247	   000
    517	007250	   063 	   040 	   103 	L163$:	.asciz	"3 CON19200"
	007253	   117 	   116 	   061
	007256	   071 	   062 	   060
	007261	   060 	   000
    518	007263	   063 	   040 	   103 	L164$:	.asciz	"3 CON38400"
	007266	   117 	   116 	   063
	007271	   070 	   064 	   060
	007274	   060 	   000
    519	007276	   063 	   040 	   103 	L165$:	.asciz	"3 CONFIRM"
	007301	   117 	   116 	   106
	007304	   111 	   122 	   115
	007307	   000
    520	007310	   063 	   040 	   103 	L166$:	.asciz	"3 CONFIRM-ACKNOWLEDGE"
	007313	   117 	   116 	   106
	007316	   111 	   122 	   115
	007321	   055 	   101 	   103
	007324	   113 	   116 	   117
	007327	   127 	   114 	   105
	007332	   104 	   107 	   105
	007335	   000
    521	007336	   063 	   040 	   104 	L167$:	.asciz	"3 DIAL-ACKNOWLEDGE"
	007341	   111 	   101 	   114
	007344	   055 	   101 	   103
	007347	   113 	   116 	   117
	007352	   127 	   114 	   105
	007355	   104 	   107 	   105
	007360	   000
    522	007361	   063 	   040 	   104 	L168$:	.asciz	"3 DIAL-PAUSE"
	007364	   111 	   101 	   114
	007367	   055 	   120 	   101
	007372	   125 	   123 	   105
	007375	   000
    523	007376	   063 	   040 	   104 	L169$:	.asciz	"3 DIAL-RATE"
	007401	   111 	   101 	   114
	007404	   055 	   122 	   101
	007407	   124 	   105 	   000
    524	007412	   063 	   040 	   105 	L170$:	.asciz	"3 ECHO"
	007415	   103 	   110 	   117
KRTIDX	HELP RMS Index	27-Sep-	MACRO V05.03b  00:01  Page 3-18
Fake RMS for help text file under RT-11

	007420	   000
    525	007421	   063 	   040 	   106 	L171$:	.asciz	"3 FAILURE"
	007424	   101 	   111 	   114
	007427	   125 	   122 	   105
	007432	   000
    526	007433	   063 	   040 	   106 	L172$:	.asciz	"3 FORMAT"
	007436	   117 	   122 	   115
	007441	   101 	   124 	   000
    527	007444	   063 	   040 	   106 	L173$:	.asciz	"3 Format-effectors"
	007447	   157 	   162 	   155
	007452	   141 	   164 	   055
	007455	   145 	   146 	   146
	007460	   145 	   143 	   164
	007463	   157 	   162 	   163
	007466	   000
    528	007467	   063 	   040 	   111 	L174$:	.asciz	"3 IDLE"
	007472	   104 	   114 	   105
	007475	   000
    529	007476	   063 	   040 	   111 	L175$:	.asciz	"3 Important-Notes!"
	007501	   155 	   160 	   157
	007504	   162 	   164 	   141
	007507	   156 	   164 	   055
	007512	   116 	   157 	   164
	007515	   145 	   163 	   041
	007520	   000
    530	007521	   063 	   040 	   111 	L176$:	.asciz	"3 INITIATE"
	007524	   116 	   111 	   124
	007527	   111 	   101 	   124
	007532	   105 	   000
    531	007534	   063 	   040 	   111 	L177$:	.asciz	"3 INITIATE-PROMPT"
	007537	   116 	   111 	   124
	007542	   111 	   101 	   124
	007545	   105 	   055 	   120
	007550	   122 	   117 	   115
	007553	   120 	   124 	   000
    532	007556	   063 	   040 	   111 	L178$:	.asciz	"3 INIT-ONCE"
	007561	   116 	   111 	   124
	007564	   055 	   117 	   116
	007567	   103 	   105 	   000
    533	007572	   063 	   040 	   116 	L179$:	.asciz	"3 NOANSWER"
	007575	   117 	   101 	   116
	007600	   123 	   127 	   105
	007603	   122 	   000
    534	007605	   063 	   040 	   116 	L180$:	.asciz	"3 NOBINARY-RESPONSE"
	007610	   117 	   102 	   111
	007613	   116 	   101 	   122
	007616	   131 	   055 	   122
	007621	   105 	   123 	   120
	007624	   117 	   116 	   123
	007627	   105 	   000
    535	007631	   063 	   040 	   116 	L181$:	.asciz	"3 NOECHO"
	007634	   117 	   105 	   103
	007637	   110 	   117 	   000
    536	007642	   063 	   040 	   116 	L182$:	.asciz	"3 NOINIT-ONCE"
	007645	   117 	   111 	   116
	007650	   111 	   124 	   055
	007653	   117 	   116 	   103
KRTIDX	HELP RMS Index	27-Sep-	MACRO V05.03b  00:01  Page 3-19
Fake RMS for help text file under RT-11

	007656	   105 	   000
    537	007660	   063 	   040 	   120 	L183$:	.asciz	"3 PULSE"
	007663	   125 	   114 	   123
	007666	   105 	   000
    538	007670	   063 	   040 	   122 	L184$:	.asciz	"3 RINGING"
	007673	   111 	   116 	   107
	007676	   111 	   116 	   107
	007701	   000
    539	007702	   063 	   040 	   123 	L185$:	.asciz	"3 SETTLE-TIME"
	007705	   105 	   124 	   124
	007710	   114 	   105 	   055
	007713	   124 	   111 	   115
	007716	   105 	   000
    540	007720	   063 	   040 	   123 	L186$:	.asciz	"3 SUCCESS"
	007723	   125 	   103 	   103
	007726	   105 	   123 	   123
	007731	   000
    541	007732	   063 	   040 	   124 	L187$:	.asciz	"3 TIME-OUT"
	007735	   111 	   115 	   105
	007740	   055 	   117 	   125
	007743	   124 	   000
    542	007745	   063 	   040 	   124 	L188$:	.asciz	"3 TONE"
	007750	   117 	   116 	   105
	007753	   000
    543	007754	   063 	   040 	   127 	L189$:	.asciz	"3 WAKE-ACKNOWLEDGE"
	007757	   101 	   113 	   105
	007762	   055 	   101 	   103
	007765	   113 	   116 	   117
	007770	   127 	   114 	   105
	007773	   104 	   107 	   105
	007776	   000
    544	007777	   063 	   040 	   127 	L190$:	.asciz	"3 WAKE-RATE"
	010002	   101 	   113 	   105
	010005	   055 	   122 	   101
	010010	   124 	   105 	   000
    545	010013	   063 	   040 	   127 	L191$:	.asciz	"3 WAKE-STRING"
	010016	   101 	   113 	   105
	010021	   055 	   123 	   124
	010024	   122 	   111 	   116
	010027	   107 	   000
    546	010031	   062 	   040 	   104 	L192$:	.asciz	"2 DTR"
	010034	   124 	   122 	   000
    547	010037	   062 	   040 	   104 	L193$:	.asciz	"2 DUPLEX"
	010042	   125 	   120 	   114
	010045	   105 	   130 	   000
    548	010050	   062 	   040 	   105 	L194$:	.asciz	"2 END-OF-LINE"
	010053	   116 	   104 	   055
	010056	   117 	   106 	   055
	010061	   114 	   111 	   116
	010064	   105 	   000
    549	010066	   062 	   040 	   105 	L195$:	.asciz	"2 EOF"
	010071	   117 	   106 	   000
    550	010074	   062 	   040 	   105 	L196$:	.asciz	"2 ESCAPE"
	010077	   123 	   103 	   101
	010102	   120 	   105 	   000
    551	010105	   062 	   040 	   106 	L197$:	.asciz	"2 FILE-TYPE"
	010110	   111 	   114 	   105
KRTIDX	HELP RMS Index	27-Sep-	MACRO V05.03b  00:01  Page 3-20
Fake RMS for help text file under RT-11

	010113	   055 	   124 	   131
	010116	   120 	   105 	   000
    552	010121	   063 	   040 	   101 	L198$:	.asciz	"3 ASCII"
	010124	   123 	   103 	   111
	010127	   111 	   000
    553	010131	   063 	   040 	   101 	L199$:	.asciz	"3 AUTO"
	010134	   125 	   124 	   117
	010137	   000
    554	010140	   063 	   040 	   102 	L200$:	.asciz	"3 BINARY"
	010143	   111 	   116 	   101
	010146	   122 	   131 	   000
    555	010151	   063 	   040 	   103 	L201$:	.asciz	"3 CREATE-SIZE"
	010154	   122 	   105 	   101
	010157	   124 	   105 	   055
	010162	   123 	   111 	   132
	010165	   105 	   000
    556	010167	   063 	   040 	   103 	L202$:	.asciz	"3 CSI-PARSING"
	010172	   123 	   111 	   055
	010175	   120 	   101 	   122
	010200	   123 	   111 	   116
	010203	   107 	   000
    557	010205	   063 	   040 	   104 	L203$:	.asciz	"3 DEC-MULTINATIONAL"
	010210	   105 	   103 	   055
	010213	   115 	   125 	   114
	010216	   124 	   111 	   116
	010221	   101 	   124 	   111
	010224	   117 	   116 	   101
	010227	   114 	   000
    558	010231	   063 	   040 	   106 	L204$:	.asciz	"3 FIXED"
	010234	   111 	   130 	   105
	010237	   104 	   000
    559	010241	   063 	   040 	   111 	L205$:	.asciz	"3 IMAGE"
	010244	   115 	   101 	   107
	010247	   105 	   000
    560	010251	   063 	   040 	   116 	L206$:	.asciz	"3 NAMING"
	010254	   101 	   115 	   111
	010257	   116 	   107 	   000
    561	010262	   064 	   040 	   103 	L207$:	.asciz	"4 CONVERTED"
	010265	   117 	   116 	   126
	010270	   105 	   122 	   124
	010273	   105 	   104 	   000
    562	010276	   064 	   040 	   106 	L208$:	.asciz	"4 FULL"
	010301	   125 	   114 	   114
	010304	   000
    563	010305	   064 	   040 	   114 	L209$:	.asciz	"4 LOWER-CASE"
	010310	   117 	   127 	   105
	010313	   122 	   055 	   103
	010316	   101 	   123 	   105
	010321	   000
    564	010322	   064 	   040 	   116 	L210$:	.asciz	"4 NOLOWER-CASE"
	010325	   117 	   114 	   117
	010330	   127 	   105 	   122
	010333	   055 	   103 	   101
	010336	   123 	   105 	   000
    565	010341	   063 	   040 	   116 	L211$:	.asciz	"3 NOPROTECT"
	010344	   117 	   120 	   122
	010347	   117 	   124 	   105
KRTIDX	HELP RMS Index	27-Sep-	MACRO V05.03b  00:01  Page 3-21
Fake RMS for help text file under RT-11

	010352	   103 	   124 	   000
    566	010355	   063 	   040 	   116 	L212$:	.asciz	"3 NOREPLACE"
	010360	   117 	   122 	   105
	010363	   120 	   114 	   101
	010366	   103 	   105 	   000
    567	010371	   063 	   040 	   116 	L213$:	.asciz	"3 NOVOLUME-VERIFY"
	010374	   117 	   126 	   117
	010377	   114 	   125 	   115
	010402	   105 	   055 	   126
	010405	   105 	   122 	   111
	010410	   106 	   131 	   000
    568	010413	   063 	   040 	   120 	L214$:	.asciz	"3 PROTECT"
	010416	   122 	   117 	   124
	010421	   105 	   103 	   124
	010424	   000
    569	010425	   063 	   040 	   122 	L215$:	.asciz	"3 REPLACE"
	010430	   105 	   120 	   114
	010433	   101 	   103 	   105
	010436	   000
    570	010437	   063 	   040 	   124 	L216$:	.asciz	"3 TEXT"
	010442	   105 	   130 	   124
	010445	   000
    571	010446	   063 	   040 	   124 	L217$:	.asciz	"3 TYPE"
	010451	   131 	   120 	   105
	010454	   000
    572	010455	   063 	   040 	   126 	L218$:	.asciz	"3 VOLUME-VERIFY"
	010460	   117 	   114 	   125
	010463	   115 	   105 	   055
	010466	   126 	   105 	   122
	010471	   111 	   106 	   131
	010474	   000
    573	010475	   063 	   040 	   127 	L219$:	.asciz	"3 WILDCARDS"
	010500	   111 	   114 	   104
	010503	   103 	   101 	   122
	010506	   104 	   123 	   000
    574	010511	   062 	   040 	   106 	L220$:	.asciz	"2 FLOW-CONTROL"
	010514	   114 	   117 	   127
	010517	   055 	   103 	   117
	010522	   116 	   124 	   122
	010525	   117 	   114 	   000
    575	010530	   062 	   040 	   110 	L221$:	.asciz	"2 HANDSHAKE"
	010533	   101 	   116 	   104
	010536	   123 	   110 	   101
	010541	   113 	   105 	   000
    576	010544	   063 	   040 	   103 	L222$:	.asciz	"3 CR"
	010547	   122 	   000
    577	010551	   063 	   040 	   116 	L223$:	.asciz	"3 NONE"
	010554	   117 	   116 	   105
	010557	   000
    578	010560	   062 	   040 	   110 	L224$:	.asciz	"2 HOME"
	010563	   117 	   115 	   105
	010566	   000
    579	010567	   062 	   040 	   111 	L225$:	.asciz	"2 INCOMPLETE-FILE-DISPOSITION"
	010572	   116 	   103 	   117
	010575	   115 	   120 	   114
	010600	   105 	   124 	   105
	010603	   055 	   106 	   111
KRTIDX	HELP RMS Index	27-Sep-	MACRO V05.03b  00:01  Page 3-22
Fake RMS for help text file under RT-11

	010606	   114 	   105 	   055
	010611	   104 	   111 	   123
	010614	   120 	   117 	   123
	010617	   111 	   124 	   111
	010622	   117 	   116 	   000
    580	010625	   062 	   040 	   114 	L226$:	.asciz	"2 LD:"
	010630	   104 	   072 	   000
    581	010633	   062 	   040 	   114 	L227$:	.asciz	"2 LINE"
	010636	   111 	   116 	   105
	010641	   000
    582	010642	   062 	   040 	   114 	L228$:	.asciz	"2 LOCAL-ECHO"
	010645	   117 	   103 	   101
	010650	   114 	   055 	   105
	010653	   103 	   110 	   117
	010656	   000
    583	010657	   062 	   040 	   114 	L229$:	.asciz	"2 LOGFILE"
	010662	   117 	   107 	   106
	010665	   111 	   114 	   105
	010670	   000
    584	010671	   062 	   040 	   114 	L230$:	.asciz	"2 LONG-PACKETS"
	010674	   117 	   116 	   107
	010677	   055 	   120 	   101
	010702	   103 	   113 	   105
	010705	   124 	   123 	   000
    585	010710	   062 	   040 	   115 	L231$:	.asciz	"2 MODEM-TYPE"
	010713	   117 	   104 	   105
	010716	   115 	   055 	   124
	010721	   131 	   120 	   105
	010724	   000
    586	010725	   062 	   040 	   116 	L232$:	.asciz	"2 NOATTRIBUTES"
	010730	   117 	   101 	   124
	010733	   124 	   122 	   111
	010736	   102 	   125 	   124
	010741	   105 	   123 	   000
    587	010744	   062 	   040 	   116 	L233$:	.asciz	"2 NODEBUG"
	010747	   117 	   104 	   105
	010752	   102 	   125 	   107
	010755	   000
    588	010756	   062 	   040 	   116 	L234$:	.asciz	"2 NOLONG-PACKETS"
	010761	   117 	   114 	   117
	010764	   116 	   107 	   055
	010767	   120 	   101 	   103
	010772	   113 	   105 	   124
	010775	   123 	   000
    589	010777	   062 	   040 	   116 	L235$:	.asciz	"2 NOREPEAT-QUOTING"
	011002	   117 	   122 	   105
	011005	   120 	   105 	   101
	011010	   124 	   055 	   121
	011013	   125 	   117 	   124
	011016	   111 	   116 	   107
	011021	   000
    590	011022	   062 	   040 	   116 	L236$:	.asciz	"2 NOUPDATE"
	011025	   117 	   125 	   120
	011030	   104 	   101 	   124
	011033	   105 	   000
    591	011035	   062 	   040 	   120 	L237$:	.asciz	"2 PARITY"
	011040	   101 	   122 	   111
KRTIDX	HELP RMS Index	27-Sep-	MACRO V05.03b  00:01  Page 3-23
Fake RMS for help text file under RT-11

	011043	   124 	   131 	   000
    592	011046	   062 	   040 	   120 	L238$:	.asciz	"2 PAUSE"
	011051	   101 	   125 	   123
	011054	   105 	   000
    593	011056	   062 	   040 	   120 	L239$:	.asciz	"2 PHONE"
	011061	   110 	   117 	   116
	011064	   105 	   000
    594	011066	   063 	   040 	   101 	L240$:	.asciz	"3 ANSWER"
	011071	   116 	   123 	   127
	011074	   105 	   122 	   000
    595	011077	   063 	   040 	   102 	L241$:	.asciz	"3 BLIND"
	011102	   114 	   111 	   116
	011105	   104 	   000
    596	011107	   063 	   040 	   116 	L242$:	.asciz	"3 NOANSWER"
	011112	   117 	   101 	   116
	011115	   123 	   127 	   105
	011120	   122 	   000
    597	011122	   063 	   040 	   116 	L243$:	.asciz	"3 NUMBER"
	011125	   125 	   115 	   102
	011130	   105 	   122 	   000
    598	011133	   063 	   040 	   120 	L244$:	.asciz	"3 PULSE"
	011136	   125 	   114 	   123
	011141	   105 	   000
    599	011143	   063 	   040 	   124 	L245$:	.asciz	"3 TONE"
	011146	   117 	   116 	   105
	011151	   000
    600	011152	   063 	   040 	   130 	L246$:	.asciz	"3 XMODE"
	011155	   115 	   117 	   104
	011160	   105 	   000
    601	011162	   062 	   040 	   120 	L247$:	.asciz	"2 PROMPT"
	011165	   122 	   117 	   115
	011170	   120 	   124 	   000
    602	011173	   062 	   040 	   122 	L248$:	.asciz	"2 RANDOM"
	011176	   101 	   116 	   104
	011201	   117 	   115 	   000
    603	011204	   062 	   040 	   122 	L249$:	.asciz	"2 RECEIVE"
	011207	   105 	   103 	   105
	011212	   111 	   126 	   105
	011215	   000
    604	011216	   063 	   040 	   120 	L250$:	.asciz	"3 PACKET-LENGTH"
	011221	   101 	   103 	   113
	011224	   105 	   124 	   055
	011227	   114 	   105 	   116
	011232	   107 	   124 	   110
	011235	   000
    605	011236	   063 	   040 	   123 	L251$:	.asciz	"3 START-OF-PACKET"
	011241	   124 	   101 	   122
	011244	   124 	   055 	   117
	011247	   106 	   055 	   120
	011252	   101 	   103 	   113
	011255	   105 	   124 	   000
    606	011260	   063 	   040 	   124 	L252$:	.asciz	"3 TIME-OUT"
	011263	   111 	   115 	   105
	011266	   055 	   117 	   125
	011271	   124 	   000
    607	011273	   062 	   040 	   122 	L253$:	.asciz	"2 REPEAT-QUOTING"
	011276	   105 	   120 	   105
KRTIDX	HELP RMS Index	27-Sep-	MACRO V05.03b  00:01  Page 3-24
Fake RMS for help text file under RT-11

	011301	   101 	   124 	   055
	011304	   121 	   125 	   117
	011307	   124 	   111 	   116
	011312	   107 	   000
    608	011314	   062 	   040 	   122 	L254$:	.asciz	"2 RETRY"
	011317	   105 	   124 	   122
	011322	   131 	   000
    609	011324	   062 	   040 	   123 	L255$:	.asciz	"2 SEED"
	011327	   105 	   105 	   104
	011332	   000
    610	011333	   062 	   040 	   123 	L256$:	.asciz	"2 SEND"
	011336	   105 	   116 	   104
	011341	   000
    611	011342	   063 	   040 	   116 	L257$:	.asciz	"3 NOXON"
	011345	   117 	   130 	   117
	011350	   116 	   000
    612	011352	   063 	   040 	   120 	L258$:	.asciz	"3 PACKET-LENGTH"
	011355	   101 	   103 	   113
	011360	   105 	   124 	   055
	011363	   114 	   105 	   116
	011366	   107 	   124 	   110
	011371	   000
    613	011372	   063 	   040 	   120 	L259$:	.asciz	"3 PADCHARACTER"
	011375	   101 	   104 	   103
	011400	   110 	   101 	   122
	011403	   101 	   103 	   124
	011406	   105 	   122 	   000
    614	011411	   063 	   040 	   120 	L260$:	.asciz	"3 PADDING"
	011414	   101 	   104 	   104
	011417	   111 	   116 	   107
	011422	   000
    615	011423	   063 	   040 	   123 	L261$:	.asciz	"3 START-OF-PACKET"
	011426	   124 	   101 	   122
	011431	   124 	   055 	   117
	011434	   106 	   055 	   120
	011437	   101 	   103 	   113
	011442	   105 	   124 	   000
    616	011445	   063 	   040 	   124 	L262$:	.asciz	"3 TIME-OUT"
	011450	   111 	   115 	   105
	011453	   055 	   117 	   125
	011456	   124 	   000
    617	011460	   063 	   040 	   130 	L263$:	.asciz	"3 XON"
	011463	   117 	   116 	   000
    618	011466	   062 	   040 	   123 	L264$:	.asciz	"2 SERVER"
	011471	   105 	   122 	   126
	011474	   105 	   122 	   000
    619	011477	   062 	   040 	   123 	L265$:	.asciz	"2 SL"
	011502	   114 	   000
    620	011504	   062 	   040 	   123 	L266$:	.asciz	"2 SPEED"
	011507	   120 	   105 	   105
	011512	   104 	   000
    621	011514	   062 	   040 	   123 	L267$:	.asciz	"2 START-OF-PACKET"
	011517	   124 	   101 	   122
	011522	   124 	   055 	   117
	011525	   106 	   055 	   120
	011530	   101 	   103 	   113
	011533	   105 	   124 	   000
KRTIDX	HELP RMS Index	27-Sep-	MACRO V05.03b  00:01  Page 3-25
Fake RMS for help text file under RT-11

    622	011536	   062 	   040 	   124 	L268$:	.asciz	"2 TERMINAL"
	011541	   105 	   122 	   115
	011544	   111 	   116 	   101
	011547	   114 	   000
    623	011551	   062 	   040 	   124 	L269$:	.asciz	"2 TT:"
	011554	   124 	   072 	   000
    624	011557	   062 	   040 	   125 	L270$:	.asciz	"2 UPDATE"
	011562	   120 	   104 	   101
	011565	   124 	   105 	   000
    625	011570	   062 	   040 	   126 	L271$:	.asciz	"2 VLSWCH"
	011573	   114 	   123 	   127
	011576	   103 	   110 	   000
    626	011601	   061 	   040 	   123 	L272$:	.asciz	"1 SHOW"
	011604	   110 	   117 	   127
	011607	   000
    627	011610	   062 	   040 	   101 	L273$:	.asciz	"2 ALL"
	011613	   114 	   114 	   000
    628	011616	   062 	   040 	   101 	L274$:	.asciz	"2 ASSIGNS"
	011621	   123 	   123 	   111
	011624	   107 	   116 	   123
	011627	   000
    629	011630	   062 	   040 	   101 	L275$:	.asciz	"2 ATTRIBUTES"
	011633	   124 	   124 	   122
	011636	   111 	   102 	   125
	011641	   124 	   105 	   123
	011644	   000
    630	011645	   062 	   040 	   102 	L276$:	.asciz	"2 BAUD"
	011650	   101 	   125 	   104
	011653	   000
    631	011654	   062 	   040 	   102 	L277$:	.asciz	"2 BINARY-TYPE"
	011657	   111 	   116 	   101
	011662	   122 	   131 	   055
	011665	   124 	   131 	   120
	011670	   105 	   000
    632	011672	   062 	   040 	   102 	L278$:	.asciz	"2 BLOCK-CHECK-TYPE"
	011675	   114 	   117 	   103
	011700	   113 	   055 	   103
	011703	   110 	   105 	   103
	011706	   113 	   055 	   124
	011711	   131 	   120 	   105
	011714	   000
    633	011715	   062 	   040 	   103 	L279$:	.asciz	"2 CL:"
	011720	   114 	   072 	   000
    634	011723	   062 	   040 	   103 	L280$:	.asciz	"2 CONSOLE"
	011726	   117 	   116 	   123
	011731	   117 	   114 	   105
	011734	   000
    635	011735	   062 	   040 	   103 	L281$:	.asciz	"2 CONTROL-PREFIXING"
	011740	   117 	   116 	   124
	011743	   122 	   117 	   114
	011746	   055 	   120 	   122
	011751	   105 	   106 	   111
	011754	   130 	   111 	   116
	011757	   107 	   000
    636	011761	   062 	   040 	   104 	L282$:	.asciz	"2 DATE"
	011764	   101 	   124 	   105
	011767	   000
KRTIDX	HELP RMS Index	27-Sep-	MACRO V05.03b  00:01  Page 3-26
Fake RMS for help text file under RT-11

    637	011770	   062 	   040 	   104 	L283$:	.asciz	"2 DAYTIME"
	011773	   101 	   131 	   124
	011776	   111 	   115 	   105
	012001	   000
    638	012002	   062 	   040 	   104 	L284$:	.asciz	"2 DEBUG"
	012005	   105 	   102 	   125
	012010	   107 	   000
    639	012012	   062 	   040 	   104 	L285$:	.asciz	"2 DEFAULT"
	012015	   105 	   106 	   101
	012020	   125 	   114 	   124
	012023	   000
    640	012024	   062 	   040 	   104 	L286$:	.asciz	"2 DELAY"
	012027	   105 	   114 	   101
	012032	   131 	   000
    641	012034	   062 	   040 	   104 	L287$:	.asciz	"2 DIAL"
	012037	   111 	   101 	   114
	012042	   000
    642	012043	   062 	   040 	   104 	L288$:	.asciz	"2 DTR"
	012046	   124 	   122 	   000
    643	012051	   062 	   040 	   104 	L289$:	.asciz	"2 DUPLEX"
	012054	   125 	   120 	   114
	012057	   105 	   130 	   000
    644	012062	   062 	   040 	   105 	L290$:	.asciz	"2 END-OF-LINE"
	012065	   116 	   104 	   055
	012070	   117 	   106 	   055
	012073	   114 	   111 	   116
	012076	   105 	   000
    645	012100	   062 	   040 	   105 	L291$:	.asciz	"2 EOF"
	012103	   117 	   106 	   000
    646	012106	   062 	   040 	   105 	L292$:	.asciz	"2 ESCAPE"
	012111	   123 	   103 	   101
	012114	   120 	   105 	   000
    647	012117	   062 	   040 	   106 	L293$:	.asciz	"2 FILE-TYPE"
	012122	   111 	   114 	   105
	012125	   055 	   124 	   131
	012130	   120 	   105 	   000
    648	012133	   062 	   040 	   106 	L294$:	.asciz	"2 FLOW-CONTROL"
	012136	   114 	   117 	   127
	012141	   055 	   103 	   117
	012144	   116 	   124 	   122
	012147	   117 	   114 	   000
    649	012152	   062 	   040 	   110 	L295$:	.asciz	"2 HANDSHAKE"
	012155	   101 	   116 	   104
	012160	   123 	   110 	   101
	012163	   113 	   105 	   000
    650	012166	   062 	   040 	   110 	L296$:	.asciz	"2 HOME"
	012171	   117 	   115 	   105
	012174	   000
    651	012175	   062 	   040 	   111 	L297$:	.asciz	"2 INCOMPLETE-FILE-DISPOSITION"
	012200	   116 	   103 	   117
	012203	   115 	   120 	   114
	012206	   105 	   124 	   105
	012211	   055 	   106 	   111
	012214	   114 	   105 	   055
	012217	   104 	   111 	   123
	012222	   120 	   117 	   123
	012225	   111 	   124 	   111
KRTIDX	HELP RMS Index	27-Sep-	MACRO V05.03b  00:01  Page 3-27
Fake RMS for help text file under RT-11

	012230	   117 	   116 	   000
    652	012233	   062 	   040 	   114 	L298$:	.asciz	"2 LD:"
	012236	   104 	   072 	   000
    653	012241	   062 	   040 	   114 	L299$:	.asciz	"2 LINE"
	012244	   111 	   116 	   105
	012247	   000
    654	012250	   062 	   040 	   114 	L300$:	.asciz	"2 LOCAL-ECHO"
	012253	   117 	   103 	   101
	012256	   114 	   055 	   105
	012261	   103 	   110 	   117
	012264	   000
    655	012265	   062 	   040 	   114 	L301$:	.asciz	"2 LOGFILE"
	012270	   117 	   107 	   106
	012273	   111 	   114 	   105
	012276	   000
    656	012277	   062 	   040 	   114 	L302$:	.asciz	"2 LONG-PACKETS"
	012302	   117 	   116 	   107
	012305	   055 	   120 	   101
	012310	   103 	   113 	   105
	012313	   124 	   123 	   000
    657	012316	   062 	   040 	   115 	L303$:	.asciz	"2 MEMORY"
	012321	   105 	   115 	   117
	012324	   122 	   131 	   000
    658	012327	   062 	   040 	   115 	L304$:	.asciz	"2 MODEM-TYPE"
	012332	   117 	   104 	   105
	012335	   115 	   055 	   124
	012340	   131 	   120 	   105
	012343	   000
    659	012344	   062 	   040 	   120 	L305$:	.asciz	"2 PACKETS"
	012347	   101 	   103 	   113
	012352	   105 	   124 	   123
	012355	   000
    660	012356	   062 	   040 	   120 	L306$:	.asciz	"2 PARAMETERS"
	012361	   101 	   122 	   101
	012364	   115 	   105 	   124
	012367	   105 	   122 	   123
	012372	   000
    661	012373	   062 	   040 	   120 	L307$:	.asciz	"2 PARITY"
	012376	   101 	   122 	   111
	012401	   124 	   131 	   000
    662	012404	   062 	   040 	   120 	L308$:	.asciz	"2 PAUSE"
	012407	   101 	   125 	   123
	012412	   105 	   000
    663	012414	   062 	   040 	   120 	L309$:	.asciz	"2 PHONE"
	012417	   110 	   117 	   116
	012422	   105 	   000
    664	012424	   062 	   040 	   122 	L310$:	.asciz	"2 RANDOM"
	012427	   101 	   116 	   104
	012432	   117 	   115 	   000
    665	012435	   062 	   040 	   122 	L311$:	.asciz	"2 RECEIVE"
	012440	   105 	   103 	   105
	012443	   111 	   126 	   105
	012446	   000
    666	012447	   062 	   040 	   122 	L312$:	.asciz	"2 REPEAT-QUOTING"
	012452	   105 	   120 	   105
	012455	   101 	   124 	   055
	012460	   121 	   125 	   117
KRTIDX	HELP RMS Index	27-Sep-	MACRO V05.03b  00:01  Page 3-28
Fake RMS for help text file under RT-11

	012463	   124 	   111 	   116
	012466	   107 	   000
    667	012470	   062 	   040 	   122 	L313$:	.asciz	"2 RETRY"
	012473	   105 	   124 	   122
	012476	   131 	   000
    668	012500	   062 	   040 	   123 	L314$:	.asciz	"2 SEED"
	012503	   105 	   105 	   104
	012506	   000
    669	012507	   062 	   040 	   123 	L315$:	.asciz	"2 SEND"
	012512	   105 	   116 	   104
	012515	   000
    670	012516	   062 	   040 	   123 	L316$:	.asciz	"2 SERVER"
	012521	   105 	   122 	   126
	012524	   105 	   122 	   000
    671	012527	   062 	   040 	   123 	L317$:	.asciz	"2 SL"
	012532	   114 	   000
    672	012534	   062 	   040 	   123 	L318$:	.asciz	"2 SPEED"
	012537	   120 	   105 	   105
	012542	   104 	   000
    673	012544	   062 	   040 	   123 	L319$:	.asciz	"2 START-OF-PACKET"
	012547	   124 	   101 	   122
	012552	   124 	   055 	   117
	012555	   106 	   055 	   120
	012560	   101 	   103 	   113
	012563	   105 	   124 	   000
    674	012566	   062 	   040 	   123 	L320$:	.asciz	"2 SUBMOUNTS"
	012571	   125 	   102 	   115
	012574	   117 	   125 	   116
	012577	   124 	   123 	   000
    675	012602	   062 	   040 	   124 	L321$:	.asciz	"2 TERMINAL"
	012605	   105 	   122 	   115
	012610	   111 	   116 	   101
	012613	   114 	   000
    676	012615	   062 	   040 	   124 	L322$:	.asciz	"2 TIME"
	012620	   111 	   115 	   105
	012623	   000
    677	012624	   062 	   040 	   124 	L323$:	.asciz	"2 TIME-OUTS"
	012627	   111 	   115 	   105
	012632	   055 	   117 	   125
	012635	   124 	   123 	   000
    678	012640	   062 	   040 	   124 	L324$:	.asciz	"2 TT:"
	012643	   124 	   072 	   000
    679	012646	   062 	   040 	   125 	L325$:	.asciz	"2 UPDATE"
	012651	   120 	   104 	   101
	012654	   124 	   105 	   000
    680	012657	   062 	   040 	   126 	L326$:	.asciz	"2 VERSION"
	012662	   105 	   122 	   123
	012665	   111 	   117 	   116
	012670	   000
    681	012671	   062 	   040 	   126 	L327$:	.asciz	"2 VLSWCH"
	012674	   114 	   123 	   127
	012677	   103 	   110 	   000
    682	012702	   061 	   040 	   123 	L328$:	.asciz	"1 SL-Editor"
	012705	   114 	   055 	   105
	012710	   144 	   151 	   164
	012713	   157 	   162 	   000
    683	012716	   062 	   040 	   106 	L329$:	.asciz	"2 Function-Keys"
KRTIDX	HELP RMS Index	27-Sep-	MACRO V05.03b  00:01  Page 3-29
Fake RMS for help text file under RT-11

	012721	   165 	   156 	   143
	012724	   164 	   151 	   157
	012727	   156 	   055 	   113
	012732	   145 	   171 	   163
	012735	   000
    684	012736	   062 	   040 	   113 	L330$:	.asciz	"2 KED-Mode-Functions"
	012741	   105 	   104 	   055
	012744	   115 	   157 	   144
	012747	   145 	   055 	   106
	012752	   165 	   156 	   143
	012755	   164 	   151 	   157
	012760	   156 	   163 	   000
    685	012763	   061 	   040 	   123 	L331$:	.asciz	"1 SPACE"
	012766	   120 	   101 	   103
	012771	   105 	   000
    686	012773	   061 	   040 	   123 	L332$:	.asciz	"1 STATUS"
	012776	   124 	   101 	   124
	013001	   125 	   123 	   000
    687	013004	   061 	   040 	   124 	L333$:	.asciz	"1 TAKE"
	013007	   101 	   113 	   105
	013012	   000
    688	013013	   061 	   040 	   124 	L334$:	.asciz	"1 TIME"
	013016	   111 	   115 	   105
	013021	   000
    689	013022	   061 	   040 	   124 	L335$:	.asciz	"1 TRANSMIT"
	013025	   122 	   101 	   116
	013030	   123 	   115 	   111
	013033	   124 	   000
    690	013035	   061 	   040 	   124 	L336$:	.asciz	"1 TYPE"
	013040	   131 	   120 	   105
	013043	   000
    691	013044	   061 	   040 	   125 	L337$:	.asciz	"1 Upgrades"
	013047	   160 	   147 	   162
	013052	   141 	   144 	   145
	013055	   163 	   000
    692	013057	   061 	   040 	   130 	L338$:	.asciz	"1 XMODEM"
	013062	   115 	   117 	   104
	013065	   105 	   115 	   000
    693						.even
    694
    695		000001 				.end
KRTIDX	HELP RMS Index	27-Sep-	MACRO V05.03b  00:01  Page 3-30
Symbol table

HIDENT  000000RG    003	L148$   007030R     003	L2$     004006R     003	L250$   011216R     003	L301$   012265R     003
HLPHEA  000024R     003	L149$   007043R     003	L20$    004262R     003	L251$   011236R     003	L302$   012277R     003
LOAHLP  000000RG    002	L15$    004210R     003	L200$   010140R     003	L252$   011260R     003	L303$   012316R     003
L1$     004002R     003	L150$   007051R     003	L201$   010151R     003	L253$   011273R     003	L304$   012327R     003
L10$    004120R     003	L151$   007063R     003	L202$   010167R     003	L254$   011314R     003	L305$   012344R     003
L100$   006140R     003	L152$   007073R     003	L203$   010205R     003	L255$   011324R     003	L306$   012356R     003
L101$   006147R     003	L153$   007102R     003	L204$   010231R     003	L256$   011333R     003	L307$   012373R     003
L102$   006156R     003	L154$   007112R     003	L205$   010241R     003	L257$   011342R     003	L308$   012404R     003
L103$   006166R     003	L155$   007123R     003	L206$   010251R     003	L258$   011352R     003	L309$   012414R     003
L104$   006177R     003	L156$   007145R     003	L207$   010262R     003	L259$   011372R     003	L31$    004442R     003
L105$   006207R     003	L157$   007155R     003	L208$   010276R     003	L26$    004360R     003	L310$   012424R     003
L106$   006216R     003	L158$   007167R     003	L209$   010305R     003	L260$   011411R     003	L311$   012435R     003
L107$   006224R     003	L159$   007200R     003	L21$    004273R     003	L261$   011423R     003	L312$   012447R     003
L108$   006235R     003	L16$    004217R     003	L210$   010322R     003	L262$   011445R     003	L313$   012470R     003
L109$   006244R     003	L160$   007212R     003	L211$   010341R     003	L263$   011460R     003	L314$   012500R     003
L11$    004126R     003	L161$   007224R     003	L212$   010355R     003	L264$   011466R     003	L315$   012507R     003
L110$   006255R     003	L162$   007236R     003	L213$   010371R     003	L265$   011477R     003	L316$   012516R     003
L111$   006263R     003	L163$   007250R     003	L214$   010413R     003	L266$   011504R     003	L317$   012527R     003
L112$   006300R     003	L164$   007263R     003	L215$   010425R     003	L267$   011514R     003	L318$   012534R     003
L113$   006306R     003	L165$   007276R     003	L216$   010437R     003	L268$   011536R     003	L319$   012544R     003
L114$   006315R     003	L166$   007310R     003	L217$   010446R     003	L269$   011551R     003	L32$    004451R     003
L115$   006334R     003	L167$   007336R     003	L218$   010455R     003	L27$    004367R     003	L320$   012566R     003
L116$   006345R     003	L168$   007361R     003	L219$   010475R     003	L270$   011557R     003	L321$   012602R     003
L117$   006353R     003	L169$   007376R     003	L22$    004302R     003	L271$   011570R     003	L322$   012615R     003
L118$   006360R     003	L17$    004225R     003	L220$   010511R     003	L272$   011601R     003	L323$   012624R     003
L119$   006375R     003	L170$   007412R     003	L221$   010530R     003	L273$   011610R     003	L324$   012640R     003
L12$    004134R     003	L171$   007421R     003	L222$   010544R     003	L274$   011616R     003	L325$   012646R     003
L120$   006411R     003	L172$   007433R     003	L223$   010551R     003	L275$   011630R     003	L326$   012657R     003
L121$   006427R     003	L173$   007444R     003	L224$   010560R     003	L276$   011645R     003	L327$   012671R     003
L122$   006436R     003	L174$   007467R     003	L225$   010567R     003	L277$   011654R     003	L328$   012702R     003
L123$   006445R     003	L175$   007476R     003	L226$   010625R     003	L278$   011672R     003	L329$   012716R     003
L124$   006463R     003	L176$   007521R     003	L227$   010633R     003	L279$   011715R     003	L33$    004460R     003
L125$   006506R     003	L177$   007534R     003	L228$   010642R     003	L28$    004412R     003	L330$   012736R     003
L126$   006514R     003	L178$   007556R     003	L229$   010657R     003	L280$   011723R     003	L331$   012763R     003
L127$   006526R     003	L179$   007572R     003	L23$    004316R     003	L281$   011735R     003	L332$   012773R     003
L128$   006536R     003	L18$    004234R     003	L230$   010671R     003	L282$   011761R     003	L333$   013004R     003
L129$   006546R     003	L180$   007605R     003	L231$   010710R     003	L283$   011770R     003	L334$   013013R     003
L13$    004156R     003	L181$   007631R     003	L232$   010725R     003	L284$   012002R     003	L335$   013022R     003
L130$   006556R     003	L182$   007642R     003	L233$   010744R     003	L285$   012012R     003	L336$   013035R     003
L131$   006567R     003	L183$   007660R     003	L234$   010756R     003	L286$   012024R     003	L337$   013044R     003
L132$   006602R     003	L184$   007670R     003	L235$   010777R     003	L287$   012034R     003	L338$   013057R     003
L133$   006626R     003	L185$   007702R     003	L236$   011022R     003	L288$   012043R     003	L34$    004471R     003
L134$   006641R     003	L186$   007720R     003	L237$   011035R     003	L289$   012051R     003	L35$    004516R     003
L135$   006656R     003	L187$   007732R     003	L238$   011046R     003	L29$    004423R     003	L36$    004537R     003
L136$   006666R     003	L188$   007745R     003	L239$   011056R     003	L290$   012062R     003	L37$    004544R     003
L137$   006674R     003	L189$   007754R     003	L24$    004333R     003	L291$   012100R     003	L38$    004567R     003
L138$   006706R     003	L19$    004246R     003	L240$   011066R     003	L292$   012106R     003	L39$    004600R     003
L139$   006720R     003	L190$   007777R     003	L241$   011077R     003	L293$   012117R     003	L4$     004026R     003
L14$    004170R     003	L191$   010013R     003	L242$   011107R     003	L294$   012133R     003	L40$    004611R     003
L140$   006727R     003	L192$   010031R     003	L243$   011122R     003	L295$   012152R     003	L41$    004625R     003
L141$   006741R     003	L193$   010037R     003	L244$   011133R     003	L296$   012166R     003	L42$    004645R     003
L142$   006756R     003	L194$   010050R     003	L245$   011143R     003	L297$   012175R     003	L43$    004665R     003
L143$   006766R     003	L195$   010066R     003	L246$   011152R     003	L298$   012233R     003	L44$    004703R     003
L144$   006774R     003	L196$   010074R     003	L247$   011162R     003	L299$   012241R     003	L45$    004713R     003
L145$   007001R     003	L197$   010105R     003	L248$   011173R     003	L3$     004012R     003	L46$    004726R     003
L146$   007012R     003	L198$   010121R     003	L249$   011204R     003	L30$    004431R     003	L47$    004745R     003
L147$   007020R     003	L199$   010131R     003	L25$    004346R     003	L300$   012250R     003	L48$    004767R     003
KRTIDX	HELP RMS Index	27-Sep-	MACRO V05.03b  00:01  Page 3-31
Symbol table

L49$    005001R     003	L6$     004056R     003	L7$     004064R     003	L8$     004072R     003	L9$     004077R     003
L5$     004037R     003	L60$    005210R     003	L70$    005371R     003	L80$    005572R     003	L90$    005774R     003
L50$    005012R     003	L61$    005216R     003	L71$    005406R     003	L81$    005607R     003	L91$    006011R     003
L51$    005031R     003	L62$    005225R     003	L72$    005423R     003	L82$    005624R     003	L92$    006026R     003
L52$    005046R     003	L63$    005237R     003	L73$    005440R     003	L83$    005641R     003	L93$    006043R     003
L53$    005065R     003	L64$    005250R     003	L74$    005455R     003	L84$    005656R     003	L94$    006060R     003
L54$    005104R     003	L65$    005270R     003	L75$    005472R     003	L85$    005673R     003	L95$    006071R     003
L55$    005132R     003	L66$    005305R     003	L76$    005507R     003	L86$    005710R     003	L96$    006076R     003
L56$    005146R     003	L67$    005322R     003	L77$    005524R     003	L87$    005725R     003	L97$    006105R     003
L57$    005157R     003	L68$    005337R     003	L78$    005541R     003	L88$    005742R     003	L98$    006113R     003
L58$    005167R     003	L69$    005354R     003	L79$    005556R     003	L89$    005757R     003	L99$    006124R     003
L59$    005200R     003

. ABS.	000000    000	(RW,I,GBL,ABS,OVR)
      	000000    001	(RW,I,LCL,REL,CON)
$CODE 	000006    002	(RO,I,LCL,REL,CON)
$PDATA	013070    003	(RO,D,LCL,REL,CON)
Errors detected:  0

*** Assembler statistics


Work  file  reads: 0
Work  file writes: 0
Size of work file: 175 Words  ( 1 Pages)
Size of core pool: 12800 Words  ( 50 Pages)
Operating  system: RT-11

Elapsed time: 00:00:00.20
KRTIDX,KRTIDX=KRTIDX
